:10000000804800208D8F000075580100798F000016
:10001000798F0000798F0000798F000000000000C8
:1000200000000000000000000000000045910000FA
:10003000798F000000000000A1900000798F00007F
:10004000B9940000B9940000B9940000B99400007C
:10005000B9940000B9940000B9940000B99400006C
:10006000B9940000B9940000B9940000B99400005C
:10007000B9940000B9940000B9940000B99400004C
:10008000B9940000B9940000B9940000B99400003C
:10009000B9940000B9940000B9940000B99400002C
:1000A000B9940000B9940000B9940000B99400001C
:1000B000B9940000B9940000B9940000B99400000C
:1000C000B9940000B9940000B9940000B9940000FC
:1000D000B9940000B9940000B9940000B9940000EC
:1000E000B9940000B9940000B9940000B9940000DC
:1000F000B9940000B9940000B9940000B9940000CC
:1001000081F0004102E000BF83F0004330B54FEAC8
:1001100041044FEA430594EA050F08BF90EA020F35
:100120001FBF54EA000C55EA020C7FEA645C7FEAC8
:10013000655C00F0E2804FEA5454D4EB5555B8BFEB
:100140006D420CDD2C4480EA020281EA030382EA5C
:10015000000083EA010180EA020281EA0303362DEE
:1001600088BF30BD11F0004F4FEA01314FF4801CC1
:100170004CEA113102D0404261EB410113F0004FD3
:100180004FEA03334CEA133302D0524263EB43038A
:1001900094EA050F00F0A780A4F10104D5F1200E28
:1001A0000DDB02FA0EFC22FA05F2801841F1000183
:1001B00003FA0EF2801843FA05F359410EE0A5F157
:1001C00020050EF1200E012A03FA0EFC28BF4CF088
:1001D000020C43FA05F3C01851EBE37101F000453E
:1001E00007D54FF0000EDCF1000C7EEB00006EEB4B
:1001F0000101B1F5801F1BD3B1F5001F0CD34908D5
:100200005FEA30004FEA3C0C04F101044FEA44522B
:1002100012F5800F80F09A80BCF1004F08BF5FEAB2
:10022000500C50F1000041EB045141EA050130BD92
:100230005FEA4C0C404141EB0101013C28BFB1F5A4
:10024000801FE9D291F0000F04BF01460020B1FAEF
:1002500081F308BF2033A3F10B03B3F120020CDAC2
:100260000C3208DD02F1140CC2F10C0201FA0CF0A0
:1002700021FA02F10CE002F11402D8BFC2F1200C05
:1002800001FA02F120FA0CFCDCBF41EA0C019040BB
:10029000E41AA2BF01EB0451294330BD6FEA040404
:1002A0001F3C1CDA0C340EDC04F11404C4F12002EF
:1002B00020FA04F001FA02F340EA030021FA04F301
:1002C00045EA030130BDC4F10C04C4F1200220FA58
:1002D00002F001FA04F340EA0300294630BD21FA96
:1002E00004F0294630BD94F0000F83F4801306BF5C
:1002F00081F480110134013D4EE77FEA645C18BF50
:100300007FEA655C29D094EA050F08BF90EA020FE6
:1003100005D054EA000C04BF1946104630BD91EADE
:10032000030F1EBF0021002030BD5FEA545C05D1E1
:100330004000494128BF41F0004130BD14F5800420
:100340003CBF01F5801130BD01F0004545F0FE4194
:1003500041F470014FF0000030BD7FEA645C1ABFC9
:10036000194610467FEA655C1CBF0B46024650EA00
:10037000013406BF52EA033591EA030F41F400212C
:1003800030BD00BF90F0000F04BF0021704730B5B2
:100390004FF4806404F132044FF000054FF0000187
:1003A00050E700BF90F0000F04BF0021704730B548
:1003B0004FF4806404F1320410F0004548BF40421D
:1003C0004FF000013EE700BF42004FEAE2014FEA72
:1003D00031014FEA02701FBF12F07F4393F07F4F4D
:1003E00081F06051704732F07F4208BF704793F050
:1003F0007F4F04BF41F40021704730B54FF4607463
:1004000001F0004521F000411CE700BF50EA010265
:1004100008BF704730B54FF000050AE050EA01020E
:1004200008BF704730B511F0004502D5404261EB7E
:1004300041014FF4806404F132045FEA915C3FF4BF
:10044000D8AE4FF003025FEADC0C18BF03325FEA5C
:10045000DC0C18BF033202EBDC02C2F1200300FA0D
:1004600003FC20FA02F001FA03FE40EA0E0021FA32
:1004700002F11444BDE600BF4FF0FF3C06E000BFB0
:100480004FF0010C02E000BF4FF0010C4DF804CD1D
:100490004FEA410C7FEA6C5C4FEA430C18BF7FEADD
:1004A0006C5C1BD001B050EA410C0CBF52EA430C0B
:1004B00091EA030F02BF90EA020F0020704710F18B
:1004C000000F91EA030F58BF994208BF90422CBF1A
:1004D000D8176FEAE37040F0010070474FEA410C13
:1004E0007FEA6C5C02D150EA013C07D14FEA430C31
:1004F0007FEA6C5CD6D152EA033CD3D05DF8040BA2
:10050000704700BF8446104662468C4619466346D3
:1005100000E000BF01B5FFF7B7FF002848BF10F1AA
:10052000000F01BD4DF808EDFFF7F4FF0CBF0120EF
:1005300000205DF808FB00BF4DF808EDFFF7EAFF6B
:1005400034BF012000205DF808FB00BF4DF808ED26
:10055000FFF7E0FF94BF012000205DF808FB00BF1B
:100560004DF808EDFFF7CEFF94BF012000205DF8A5
:1005700008FB00BF4DF808EDFFF7C4FF34BF0120B2
:1005800000205DF808FB00BF4FEA4102B2F1E043F2
:1005900024BFB3F5001CDCF1FE5C0DD901F0004C6A
:1005A0004FEAC0024CEA5070B2F1004F40EB8300BA
:1005B00008BF20F00100704711F0804F21D113F1E6
:1005C0003872BCBF01F00040704741F480114FEA1F
:1005D0005252C2F11802C2F1200C10FA0CF320FAA8
:1005E00002F018BF40F001004FEAC1234FEAD323C5
:1005F00003FA0CFC40EA0C0023FA02F34FEA43032F
:10060000CCE77FEA625307D150EA01331EBF4FF0B7
:10061000FE4040F44000704701F0004040F0FE40D2
:1006200040F40000704700BF7BB972B90029BEBF1B
:1006300000204FF0004106E008BF00281CBF6FF00B
:1006400000414FF0FF3000F057B8ADF1080C6DE9F4
:1006500004CE002909DB002B1ADB00F069F8DDF875
:1006600004E0DDE9022304B07047404261EB410140
:10067000002B1BDB00F05CF8DDF804E0DDE9022371
:1006800004B0404261EB4101524263EB43037047C7
:10069000524263EB430300F04BF8DDF804E0DDE980
:1006A000022304B0404261EB41017047524263EBC8
:1006B000430300F03DF8DDF804E0DDE9022304B077
:1006C000524263EB4303704753B94AB9002908BF4C
:1006D00000281CBF4FF0FF314FF0FF3000F00CB886
:1006E000ADF1080C6DE904CE00F022F8DDF804E06D
:1006F000DDE9022304B07047704700BF10F8012BFA
:1007000011F8013B012A28BF9A42F7D0D01A70474E
:10071000034611F8012B03F8012B002AF9D1704789
:10072000034613F8012B002AFBD1181A0138704731
:100730002DE9F04786468C460846089E15467446C5
:100740001946002B40F0C2808542B2FA82F245D9A8
:100750004AB1C2F1200300FA02FC2EFA03F39540DD
:1007600043EA0C0C94404FEA154EA8B2BCFBFEF8CD
:10077000230C0EFB18CC08FB00F943EA0C43994507
:1007800028D9EB1808F1FF3704D2994502D9A8F10E
:1007900002072B44A3EB0903A4B2B3FBFEFC0EFB40
:1007A0001C330CFB00F044EA0344A04214D92C197A
:1007B0000CF1FF3304D2A04202D9ACF102032C4465
:1007C000241A43EA07401EB1D4400023346073600A
:1007D000BDE8F0874746DDE76346F1E792BB431B80
:1007E00001214FEA154EAFB2B3FBFEFC200C0EFB0D
:1007F0001C330CFB07F840EA0343984562D9EB1819
:100800000CF1FF3004D2984502D9ACF102002B4420
:10081000A3EB0803A4B2B3FBFEFC0EFB1C330CFBE2
:1008200007F744EA0344A7424ED92C190CF1FF33D1
:1008300004D2A74202D9ACF102032C44E41B43EAE0
:100840000040C0E7C2F1200320FA03F19540904038
:100850002EFA03F303434FEA154EAFB2B1FBFEFC91
:100860000EFB1C10190C0CFB07F841EA00418845EF
:1008700004FA02F422D969180CF1FF3004D2884539
:1008800002D9ACF102002944A1EB08019BB2B1FBF3
:10089000FEFC0EFB1C110CFB07F743EA01439F42D1
:1008A0000ED9EB180CF1FF3104D29F4202D9ACF102
:1008B00002012B44DB1B41EA004192E76046E3E77B
:1008C0006146F7E76046A3E76346B7E7834206D988
:1008D00016B9002108467BE7C6E900E0F9E7B3FA5C
:1008E00083F78FB9834201D3724508D8BEEB020467
:1008F00060EB030301209C461EB9002168E73846DF
:10090000FAE7C6E9004CF8E7C7F1200CBB4022FA31
:100910000CF41C432EFA0CF120FA0CF3B8400143FE
:100920004FEA14490EFA07F5B3FBF9F81FFA84FEF3
:1009300009FB18300B0C08FB0EFA43EA00439A45FA
:1009400002FA07F240D9E31808F1FF3004D29A45C1
:1009500002D9A8F102002344A3EB0A0389B2B3FB36
:10096000F9F809FB183308FB0EFE41EA03418E45F6
:100970002CD9611808F1FF3304D28E4502D9A8F1B1
:100980000203214443EA0040A0FB0298A1EB0E01C0
:100990004145CE46434602D306D14D4504D2B9EB7C
:1009A000020E68EB04030138002EA6D0B5EB0E0250
:1009B00061EB030101FA0CFC22FA07F34CEA030392
:1009C000F940C6E9003198E74046C5E74346D9E714
:1009D0002DE9F04F85B006460F46154698468368C8
:1009E0005B6802AA984700282FDB029CDDF80C9078
:1009F000A5FB04AB05FB09BB19A3D3E900235046B3
:100A00005946FFF761FE05464FF0FF335345164B3D
:100A100073EB0B031CD3A8FB04A408FB094410A32D
:100A2000D3E9002350462146FFF74EFE03464FF020
:100A3000FF3252450C4AA2410DD3BDF83820009236
:100A40002A463946304612F095FC05B0BDE8F08FD5
:100A50006FF08500F9E76FF08500F6E7AFF30080EF
:100A600000CA9A3B00000000FFC99A3B000000004A
:100A70002DE9F04F8DB009900D46174616F07DFD1B
:100A80004B0143EAD0634401241A63EB01039B004A
:100A900043EA9473A400241843EB0101C90041EA1E
:100AA0005471C4F3103444EA41444FEAD139012D62
:100AB00065D07D6829463C48FFF720FE28B12946CD
:100AC0003A48FFF71BFE002861D135A3D3E9002384
:100AD00020464946FFF7A8FD80460A9130A3D3E996
:100AE000002320464946FFF79FFD15461C46304A25
:100AF000002328462146FFF797FD06460F462C4A5D
:100B0000002328462146FFF78FFD15461C464EF66A
:100B10006022002328462146FFF786FD81460B917F
:100B20004EF66022002328462146FFF77DFD15463C
:100B30001C464FF47A72002328462146FFF774FDC5
:100B400083468A464FF47A72002328462146FFF7EF
:100B50006BFDCDE90623CDF810B0CDF814A0CDF88B
:100B600008900B9A03920096019742460A9B1149FE
:100B7000099813F098FF00200DB0BDE8F08F2246D1
:100B80004B460D49099813F08EFF0020F4E72A46E2
:100B90000A49099813F0A5FF6FF00400ECE700BFC5
:100BA000005C26050000000008AA01000CAA010054
:100BB00080EE360030AA0100F4A9010018AA010055
:100BC00030B589B00C9D00283FD00446002949D09B
:100BD000D0F8100110F0010F51D10020C4F8F80036
:100BE000C4F8FC0004F58070C4F80001C4F80401E6
:100BF00004F58470C4F80801C4F80C01002D4BD032
:100C0000287900284AD10120C4F810019FED267BE5
:100C10008DED067B002004900393029001900094D8
:100C2000234B20460DF0B4F855B1296811B1204688
:100C30000CF098FF6B791BB1237B43F00103237306
:100C400020460EF075F909B030BD1A4C40F2DB2396
:100C500022461949194813F062F840F2DB21204678
:100C600013F054F8134C4FF43773224614491348C9
:100C700013F055F84FF43771204613F047F80D4C38
:100C800040F2DD2322460F490C4813F048F840F2A9
:100C9000DD21204613F03AF80120B5E740F20110BB
:100CA000B2E700BFAFF30080FFFFFFFFFFFFFFFFD2
:100CB000F50E010000E201008CE20100888F0100C6
:100CC00094E201009CE201002DE9FF4780461646B0
:100CD0000F46002900F0A280B1FA81F4341B002EE7
:100CE00004F10A04C0F2A280304612F0FFF9044475
:100CF000304612F001FAA4EB060905466946304673
:100D000012F022FAA9EB05037D336A4640463946C4
:100D100016F08EFEA64282460D4600F38380B9F19E
:100D20003F0F00F381804FF0FF33A9F1200003FA59
:100D300000F003FA09F2C9F12001024323FA01F19C
:100D40000A4303FA09F328EA030327EA02021343DA
:100D50000CBF01200020002D00F08A80B5FA85F339
:100D6000E31A03F23E4340F2FE72934200F389809D
:100D7000002B23EAE376CCBF32460122121BA2F2FB
:100D80003341C1F1200CA2F23447A2F253442AFAB3
:100D900001F305FA0CFC43EA0C0325FA04F4C7F14D
:100DA000200EA2F2544C234305FA0EFE2AFA07F451
:100DB00025FA0CFC44EA0E0444EA0C0414F0010F7A
:100DC00025FA01F1C7F1200CA2F2544254D0A8B187
:100DD0004FF0FF3000FA02F200FA07F4144320FA51
:100DE0000CF2B84014432AEA000A03F0010225EA93
:100DF00004054AEA020A5AEA050A3DD0013341F1E4
:100E00000002C2F3130253EA020138D0184642EA44
:100E1000065141EC100B04B0BDE8F087B0FA80F445
:100E200020345BE7012096E7002094E7C6F1000933
:100E3000484612F061F9241A484612F05DF9A61BE3
:100E40000546694648462E4412F0F2F906F17C0345
:100E50006A464046394616F0EBFD82460D4640464E
:100E6000394612F059F981458CBF0020012072E704
:100E7000BAFA8AF3203373E7C1F31302C6E70136E7
:100E8000C4E79FED010BC6E7000000000000F07F03
:100E900030B58DB02B4B1B6803F00703022B07D82E
:100EA00007AC294D0FCD0FC42B682360002421E02F
:100EB000264B029300200190009003460322214913
:100EC00012F033FAECE70CAB03EB840353F8143C59
:100ED00003931F4B029300200190009003460322CE
:100EE000184912F022FA0DE04FF4804000210DF075
:100EF0009DFF0134042C22D8124B1B6803F007031A
:100F0000022BE0D80CAB03EB840353F8145C0121F3
:100F1000284601F063FA0028E6DA0A4B1B6813F052
:100F2000070FE1D0049003950A4B02930020019033
:100F3000009003460122034912F0F7F9D4E70DB0FF
:100F400030BD00BFE80600200085010018880100C0
:100F50002C8801003888010010B584B00446304B5D
:100F60001B6803F00703022B28D82D4B1B6803F0E6
:100F70000703022B2DD800212A4801F075FA00281A
:100F800032DB4FF47A7303FB04F0410CC00340F2F0
:100F9000E733C0184FF47A724FF0000341F10001BB
:100FA000FFF792FB0DF042FF01F0C0FA1C4B1B68EB
:100FB00003F00703022B28D804B010BD1A4B02938C
:100FC00000200190009003460322154912F0ADF96C
:100FD000CBE7164B029300200190009003460322BA
:100FE0000F4912F0A2F9C6E70D4B1B6813F0070F6B
:100FF000E2D003900E4B0293002001900090034634
:101000000122074912F091F9D6E70A4B029300201A
:101010000190009003460322014912F086F9CBE7C4
:10102000E80600203910000050880100688801009F
:1010300098880100B488010010B588B00446374B89
:101040001B6803F00703022B13D8344B1B6803F013
:101050000703022B19D832492046FFF74FFB00281F
:1010600030D12E4B1B6803F00703022B20D808B0A9
:1010700010BD03902B4B029300200190009003467B
:101080000322264912F051F9DFE7238C628CA18CF0
:10109000E08C0690059104920393234B0293002069
:1010A00001900090034603221C4912F03EF9D2E75A
:1010B0001E4B02930190009003460322174912F041
:1010C00034F9D4E71A492046FFF718FB78B9134BD7
:1010D0001B6803F00703022BC9D9164B029301903A
:1010E0000090034603220D4912F01FF9BFE7124991
:1010F0002046FFF703FB0028B9D1084B1B6803F01B
:101100000703022BB3D90D4B0293019000900346C5
:101110000322024912F009F9A9E700BFE8060020FE
:1011200008890100CC880100DC88010010890100D9
:101130002889010030890100448901004C8901009F
:1011400030B5ADF2044D05464FF48061684601F0BC
:1011500015FA041E09DB6A460649284613F0A3FC6B
:10116000002420460DF2044D30BD0349284613F0FB
:10117000B8FCF6E7B89E01006489010038B5054661
:10118000012917D9546819492046FFF7B7FAB8B1B1
:1011900017492046FFF7B2FAC8B9164A1649174848
:1011A00001F048F80446D4B91549284613F07BFCF1
:1011B000204638BD134913F094FC6FF01504F7E78F
:1011C0000C4A1149114801F035F80446EBE7224674
:1011D0000F49284613F085FC6FF01504E8E7224616
:1011E0000C49284613F07DFCE2E700BF9889010016
:1011F000AC890100A0890100B48901000C8D0100B7
:10120000D089010078890100A4890100E48D0100E2
:10121000BC890100F089010070B50646012927D874
:101220000A2422461849304613F03DFC0021174895
:1012300001F01AF9051E20DB4FF47A7304FB03F367
:10124000590CDB0340F2E73298184FF47A724FF0F2
:10125000000341F10001FFF737FA0DF0E7FD01F05F
:1012600065F90B49304613F01EFC0025284670BD79
:10127000506816F013FB0446D3E72A46054930466A
:1012800013F02FFCF2E700BF048A010039100000C0
:101290003C8A0100248A010070B50546012916D94F
:1012A0005668022919D80124234632461049284697
:1012B00013F0F9FB2146304601F090F8041E11DBD3
:1012C0000C49284613F0EFFB0024204670BD0A4964
:1012D00013F007FC6FF01504F7E7906816F0DEFADC
:1012E0000446E1E722460549284613F0FAFBECE7FD
:1012F000748A01009C8A0100508A0100888A0100DA
:1013000030B5ADF2144D804B1B6803F00703022B80
:1013100069D87D4B1B6803F00703022B6ED87A4B0C
:101320001B6803F00703022B73D8774B1B6803F08D
:101330000703022B78D8744B1B6803F00703022BBA
:101340007DD800F033FF041EC0F2848001F052FA11
:10135000041EC0F294806C4B1B6803F00703022B41
:1013600000F29E80694A6A496A4800F063FF041EE1
:10137000C0F2A1804FF4806104A801F0FFF8624B35
:101380001B6803F00703022B00F2A6804FF48030A5
:1013900000210DF04BFD5C4B1B6803F00703022B93
:1013A00000F2A780FFF774FD4FF48034002520463B
:1013B00029460DF03BFD1E20FFF7CEFD20462946B5
:1013C0000DF034FD504B1B6803F00703022BE2D9EC
:1013D000514B0293002001900090034603224A499A
:1013E00011F0A3FFD7E74D4B02930020019000902E
:1013F00003460322444911F098FF8AE7484B0293C1
:10140000002001900090034603223F4911F08DFF18
:1014100085E7444B0293002001900090034603228D
:10142000394911F082FF80E73F4B02930020019081
:10143000009003460322344911F077FF7BE7374BD6
:101440000293002001900090034603222E4911F0E0
:101450006CFF76E72C4B1B6813F0070F03D1204677
:101460000DF2144D30BD0394304B029300200190D7
:10147000009003460122244911F057FFEFE7224B69
:101480001B6813F0070FEAD00394294B0293002046
:1014900001900090034601221B4911F046FFDEE750
:1014A000244B02930020019000900346032216492A
:1014B00011F03BFF56E7144B1B6813F0070FCED01B
:1014C00003941D4B029300200190009003460122DB
:1014D0000D4911F02AFFC2E704AB0393174B0293A7
:1014E00000200190009003460322074911F01DFFE0
:1014F0004CE7134B02930020019000900346032217
:10150000014911F012FF4DE7E8060020A089010013
:10151000A4890100E48D0100D08B0100B08A010094
:10152000DC8A0100FC8A0100188B0100348B010069
:101530004C8B0100688B0100948B0100B08B010083
:10154000B48B010010B582B043681B6801248C4045
:1015500023420AD001A911F0F7FE20B9019B1C42D9
:1015600014BF0120002002B010BD084C40F23363CC
:1015700022460749074812F0D2FB074812F0CFFB7A
:1015800040F23361204612F0C1FB00BF148F01000E
:10159000488F0100888F0100A88F0100234B5B7BDF
:1015A00003B9704730B583B015F040F8C20E43015F
:1015B0001B1A62F10002520242EAD3525B021B186C
:1015C00042F100018C0144EA93649A01D31A64EB5E
:1015D00001021C1842F10003E40B44EA43440C21CD
:1015E0001348FFF7AFFF051E1BDB104B9B6893B141
:1015F000A34218D8E31A591E0E4A91420BD8009301
:101600000A4A137B83F001038DF80430136813B189
:10161000516868469847054B9C60281E18BF0120FA
:10162000187303B030BDE31AE5E700BF401900208E
:10163000988001009E860100F8B5866847680469B5
:1016400012F0FC6F33D1134602F03002302A3ED044
:10165000504A1A40504DAA4249D003F00602042ACB
:1016600055D013F4402202D013F4003F5CD0B2F501
:10167000402F69D013F4801F05D022B113F0010F61
:1016800001D083F4402323F480123D684FF0010C15
:101690000CFA01FC15EA0C0F66D013F0010F73D0A1
:1016A00023684CEA0303236033689847F8BD3B4C3A
:1016B00040F2DE3322463A493A4812F030FB3A48CB
:1016C00012F02DFB40F2DE31204612F01FFB334CAE
:1016D00040F2E13322463549324812F020FB3448CB
:1016E00012F01DFB40F2E131204612F00FFB2B4CB3
:1016F00040F2E53322462F492A4812F010FB2E48CB
:1017000012F00DFB40F2E531204612F0FFFA234CB7
:101710004FF47A7322462949224812F000FB4FF415
:101720007A71204612F0F2FA1C4C40F2EB3322465A
:1017300023491C4812F0F3FA224812F0F0FA40F262
:10174000EB31204612F0E2FA144C40F2EF3322461D
:101750001D49144812F0E3FA1C4812F0E0FA40F276
:10176000EF31204612F0D2FA0C4C40F2FB33224605
:1017700017490C4812F0D3FA164812F0D0FA40F28A
:10178000FB31204612F0C2FA236823EA0C032360DF
:101790008AE700BF0200030002000100148F01006D
:1017A000BC8F0100888F01001C9001004090010057
:1017B0007C900100BC900100049101005491010053
:1017C00088910100D09101000C920100509201001B
:1017D000488F0100A88F010070B5836845680669CD
:1017E0009C69002C72D002F4C003B3F5C00F1DD069
:1017F00063B302F0E863B3F1C86F37D002F0C86397
:10180000B3F5800F42D02D6801238B401D424DD08F
:1018100012F4000F04D035682B4201D082F0C06270
:101820002C4B134002F0B072A04770BD2A4C40F21E
:101830007A33224629492A4812F071FA294812F0CF
:101840006EFA40F27A31204612F060FA224C40F2F1
:101850007E3322462449224812F061FA234812F0CE
:101860005EFA40F27E31204612F050FA1A4C40F2F5
:10187000813322461E491A4812F051FA1D4812F0CF
:101880004EFA40F28131204612F040FA124C4FF4E9
:10189000627322461849124812F041FA174812F0B2
:1018A0003EFA4FF46271204612F030FA0A4C40F2D0
:1018B0009233224612490A4812F031FA114812F0C6
:1018C0002EFA40F29231204612F020FA6FF05700C3
:1018D000ABE700BF40000006148F01007C920100BE
:1018E000888F0100C0920100EC9201001893010062
:1018F00044930100C89301001C9401006894010006
:10190000488F0100A88F010010B584B04D4815F034
:101910004AFC002830D04C4815F045FC00283DD04A
:101920004A4A0C214848FFF787FE041E48DB4FF463
:1019300000120C214448FFF74FFF041E54DB4449BA
:10194000444B4B604FF480538B603F4811F008FDCF
:10195000041E5ADB404B0021196059609960D96020
:101960000A463E4811F015FD3D4B1B6803F0070386
:10197000022B5BD8002428E0394B1B6813F0070FBB
:1019800002D16FF0120420E0364B029301900090D8
:1019900003460122324911F009FDF2E7304B1B6882
:1019A00013F0070F02D16FF012040EE02E4B0293DA
:1019B0000190009003460122294911F0F7FCF2E75B
:1019C000274B1B6813F0070F02D1204604B010BD4F
:1019D0000394264B029300200190009003460122BD
:1019E0001F4911F0E3FCF0E71D4B1B6813F0070FD4
:1019F000EBD003941E4B029300200190009003460D
:101A00000122174911F0D2FCDFE7154B1B6813F0D8
:101A1000070FDAD00394174B029300200190009037
:101A2000034601220E4911F0C1FCCEE7124B02938E
:101A3000002401940094234603220949204611F012
:101A4000B5FCC2E7E08001009880010010000100B1
:101A5000501900209D15000040190020A895010094
:101A6000EC060020B0940100C8940100E09401004D
:101A700000950100249501004095010010B584B047
:101A80001149B1FBF0F101EB4112104BA3FB023203
:101A900052090F4811F07DFC041E03DB0024204690
:101AA00004B010BD0B4B1B6813F0070FF7D0039465
:101AB000094B029300200190009003460122054942
:101AC00011F074FCEBE700BF00CA9A3B1F85EB5195
:101AD000A8950100EC0600205495010008B50022ED
:101AE0001146024811F055FC002008BDA8950100E0
:101AF00038B504460D4629B1204615F04EFB3DB1E0
:101B0000002038BD00221146054811F042FCF3E7E1
:101B100042F2EB1246F2CB61014811F03AFCEFE7DA
:101B2000A895010010B584B0002836D01C4B186071
:101B3000596000229A601A7301225A734FF0E862CA
:101B40000C211848FFF748FE041E09DB164B1B68E2
:101B500003F00703022B14D80024204604B010BD64
:101B6000114B1B6813F0070FF7D003940F4B029330
:101B7000002001900090034601220B4911F016FC51
:101B8000EBE70B4B029300240194009423460322BD
:101B90000549204611F00AFCDFE76FF01504DCE789
:101BA0004019002098800100EC0600206C9501008F
:101BB0009095010000B585B00E4B00225A734FF48A
:101BC00000120C210C48FFF707FE0C4B1B6803F0BA
:101BD0000703022B03D8002005B05DF804FB084B77
:101BE000029300200190009003460322034911F064
:101BF000DDFBF0E74019002098800100EC06002092
:101C00009C95010010B506E003F1200E10E0E645BA
:101C100018D1013001310378BBB10A78AAB19E46D0
:101C2000144C14F803C00CF0030CBCF1010FEBD002
:101C30009446104B9B5C03F00303012BE7D102F1A8
:101C4000200CE4E7AEEB0C000EE01846094AD25C2B
:101C500002F00302012A08D00A78064B9B5C03F0CD
:101C60000303012B04D0801A10BD03F12000F3E719
:101C70002032F8E701E401000A4679B101EB810363
:101C80009B000A49A1FB03135909A2EB531383429A
:101C900008D80A44824207D200207047B0FA80F088
:101CA0004009704700207047012070471F85EB51A5
:101CB000F0B58FB006460C462C2115F003FE60B33C
:101CC0000746851B1F2D00D91F252A46314606A829
:101CD00015F017FE05F138030DEB0305002305F899
:101CE000203C02AB019303AB009304AB05AA0E4961
:101CF000781C0FF0A5FC042812D11F2206A920464B
:101D000015F0FFFD059B2384049B6384039BA38440
:101D1000029BE38400200FB0F0BD6FF01500FAE7DE
:101D20006FF01500F7E700BFC09501000023052BF9
:101D30000DD803EB4302120106498A5C824201D0AE
:101D40000133F4E703EB430301EB0310704700207A
:101D5000704700BF58960100002800F0958070B5CC
:101D6000C4B00D460446002900F09180882200216D
:101D7000284615F08BFD00E001342378002B66D057
:101D80000A3BDBB2162B64D8424A22FA03F313F063
:101D9000010FF1D100262378002B5CD0002203E054
:101DA000013404A88354013223782BB10A2B03D0C9
:101DB0000D2B01D0FE2AF3D904AB0021995400E089
:101DC000013423781BB10A2BFAD00D2BF8D0002A4E
:101DD000E1D09DF81030232BDDD0D5F88430B3420C
:101DE0000BD3EEB1760006EB8601C900D5F8800072
:101DF00007F072FEB0B1C5F88000D5F88010D5F8B4
:101E0000843003EB830301EBC30104A8FFF750FF09
:101E10000028C0D1D5F884300133C5F88430BAE742
:101E20001026E0E71C4B1B6813F0070F05D128466E
:101E300011F0DAFA6FF00B0014E0184B02930190E6
:101E4000009003460122144911F0BFFAEFE7002683
:101E5000A1E700269FE7104B1B6803F00703022B46
:101E600002D8002044B070BDD5F8843003930C4BE9
:101E7000029300240194009423460322064920463D
:101E800011F0A3FA2046EDE76FF0150070476FF0F0
:101E90001500E7E70900400000070020CC9501008D
:101EA000E8950100002800F0EA802DE9F04F85B0A8
:101EB0000C4693461E460546002900F0E380002AA2
:101EC00000F0E380B0F820805FFA88F0FFF72EFF83
:101ED0000246002854D0D0F81080B8F1000F08D086
:101EE000012E40F2D580C4F80080436963604FF052
:101EF000020892F82C30002B56D0698C01209840B3
:101F0000013801404FF0000C994692F82D30C3B1D2
:101F1000A3F12000C3F1200E0CFA03FC01FA00F03B
:101F20004CEA000C21FA0EFE9940B5F824A00120DD
:101F3000984001380AEA000A41EA0A014CEA0E0C0C
:101F4000994492F82E00A0F12003C0F1200A0CFA67
:101F500000FC01FA03F34CEA030C21FA0AFA81406F
:101F6000B5F826E001238340013B0EEA0303194341
:101F70004CEA0A0C48442B8C012B1AD0013842E061
:101F8000484B1B6813F0070F02D16FF0850073E018
:101F9000CDF80C80444B029301900090034601223F
:101FA000404911F012FAF0E74FF000094946CC46DB
:101FB000ABE74FEA0C2C4CEA116C6FEA0E0E5FFA9D
:101FC0008EFE4EEA01210830D8E747B108F1010939
:101FD000D36944F82830936944F8293011E008F1B6
:101FE0000109936944F82830D36944F8293008E09E
:101FF00093695B0808F1010944F82830D36944F873
:1020000029300138F04600282ADB08F1020EB645D7
:1020100041D8C0F1200AA0F1200921FA00F30CFAFE
:102020000AFA43EA0A032CFA09F943EA090303F01E
:1020300001072B8C042BC8D00F3B9BB2022B03D87B
:10204000002FD5D09369D5E708F1010A936944F8C8
:1020500028301FB1136A44F82A30D2E7D369FAE76F
:10206000536A33B108F10102B24217D844F828305C
:102070009046CBF80080002005B0BDE8F08F6FF0EF
:10208000150070476FF01500F6E76FF01500F3E7E5
:102090006FF00B00F0E76FF00B00EDE76FF00B0057
:1020A000EAE700BF0007002000960100274BD3F8A5
:1020B0009828002A49D0D3F89030002B45D000B59D
:1020C00093B0234908ABA1F1980011F0BAF960BBB5
:1020D000204B1B6803F00703022B0DD81B4BD3F8D2
:1020E0009020D3F8941008A89047184B0022C3F80A
:1020F000982813B05DF804FBBDF84030BDF84220CD
:10210000BDF84410BDF8460007900691059204936F
:1021100008AB0393104B02930020019000900346FC
:1021200003220C4911F0C3FAD8E70A4B1B6813F0DD
:10213000060FDAD0094B029300200190009003466D
:102140000222044911F0B3FACFE77047900700204C
:1021500028080020F806002084970100A4970100B9
:10216000104B93F8D838E3B100B583B00D4BD3F8DA
:102170009838B3F5007F07D20A4A591CC2F898185C
:102180000168263342F8231000220023CDE9002302
:1021900041F23432002304480DF00AFF03B05DF829
:1021A00004FB7047900700203010002010B584B069
:1021B0004FF40E620021194815F068FBFFF7A4FBED
:1021C000041E0EDB00221649164815F045FA164B80
:1021D0001B6803F00703022B14D80024204604B028
:1021E00010BD114B1B6813F0070FF7D003940F4B72
:1021F0000293002001900090034601220A4911F049
:1022000056FAEBE70A4B029300240194009423460C
:1022100003220549204611F04AFADFE79007002023
:10222000AD20000030100020F8060020BC9701000F
:10223000D0970100F0B585B000283CD00D4614467B
:1022400006461E4B93F88830F3B931461B4811F00F
:102250001FFA0646A8B925B13F222946174815F0AE
:1022600050FB24B13F222146154815F04AFB134B81
:10227000012283F88820134B1B6803F00703022B0D
:102280000AD8304605B0F0BD0C4F384611F0ACF816
:10229000002387F88830D8E7084BD3F884300393BD
:1022A000094B029300200190009003460322054948
:1022B00011F0FDF9E5E76FF01506E2E79007002061
:1022C000D0070020F8060020E89701002DE9F04132
:1022D000ADF5026D002875D00E46804690F82000BE
:1022E000FFF724FD074678B14FF4007307AA08A949
:1022F0004046FFF7D7FD041E1BDBB868FFF7BEFBA7
:10230000041E4BDB002539E0304B1B6813F0070F30
:1023100002D16FF0850441E0B8F8203003932C4BD4
:1023200002930190009003460122284911F0BFF961
:10233000EFE7264B1B6813F0070F2FD00394254BB4
:102340000293002001900090034601221F4911F0E2
:10235000AEF923E014F0010F0CBF0121002108ABFE
:1023600053F82400FFF7C4FB0134079BA342F1D8C4
:10237000731EAB4201D9B86A20B90135AE4204D907
:102380000024F2E70CF098FDF7E7FFF7A7FB0F4BEF
:102390001B6803F00703022B05D8002420460DF527
:1023A000026DBDE8F0810496CDF80C800A4B0293D3
:1023B000002401940094234603220449204611F08E
:1023C00076F9EBE76FF01504E8E700BFF8060020A8
:1023D000009601001098010024980100002837D0D1
:1023E00030B585B00C4605461B4B93F888304BB191
:1023F0000146194811F007F8B8B12146FFF766FF0A
:1024000005B030BD154B1B6813F0070F02D16FF0FC
:102410001500F5E7124B029300200190009003464F
:1024200001220E4911F043F9F1E70C4B1B6813F040
:10243000070F02D16FF00100E2E70395094B029309
:102440000190009003460122044911F030F9F1E7B0
:102450006FF01500704700BF90070020F8060020BD
:102460003C9801005098010010B584B000284DD070
:10247000284B93F88830CBB1264BC3F89000C3F8B3
:1024800094100021C3F89818012283F8D828224814
:10249000FFF748FB041E1CDB204B1B6803F00703FF
:1024A000022B27D80024204604B010BD1B4B1B680C
:1024B00013F0070F02D16FF01504F4E7184B0293E5
:1024C00000200190009003460122144911F0EFF81A
:1024D000F1E7124B1B6813F0070FE4D00394114B84
:1024E0000293002001900090034601220B4911F055
:1024F000DEF8D8E70C4B02930024019400942346A5
:1025000003220649204611F0D2F8CCE76FF01504FB
:10251000C9E700BF9007002061210000F8060020F5
:102520003C980100988801006898010000B585B0CA
:102530000F48002380F8D83800F50A6015F098F8A5
:10254000FFF738FB0B4B1B6803F00703022B03D884
:10255000002005B05DF804FB074B029300200190BA
:10256000009003460322034911F0A1F8F0E700BFF1
:1025700090070020F80600207C98010000283ED03B
:10258000F0B585B00E46074600293BD0224B93F8A4
:102590008830002B39D0204D05F1400300932B46A5
:1025A0001E4A0FF021F80446D5F884301C4A311A2F
:1025B00038180FF019F80444002517E0164BD3F82B
:1025C000803005EB850203EBC2031A8C598C988C82
:1025D000B3F826C0CDF80CC0029001910092114AC8
:1025E000311B38190FF000F8044401350A4BD3F8B9
:1025F0008430AB420CD9B442E0D3002009E06FF044
:10260000150070476FF0150003E06FF0150000E053
:10261000002005B0F0BD00BF900700209098010099
:10262000A0980100B4980100184B93F8B0305BB348
:10263000164BD3F8B4203AB310B584B0144B1B68D2
:1026400003F00703022B13D8104CD4F8B430A38442
:10265000012384F83030002384F8B030FFF7AAFA61
:10266000636B1BB12146A26B0320984704B010BDD9
:102670000392084B0293002001900090034603222E
:10268000034911F023F8DFE7704700BF7010002006
:10269000F4060020DC980100124B93F8B030FBB137
:1026A00010B584B0104B1B6813F0060F0DD10D4C04
:1026B000002384F8B030FFF77DFA636B1BB1A26B87
:1026C00000210420984704B010BD084B029300205D
:1026D0000190009003460222034910F0F7FFE6E75D
:1026E000704700BF70100020F40600200099010020
:1026F0003B4B93F8B030002B70D010B584B004463B
:102700000368312B3FD9364BD3F8B43053BB354B2C
:102710001B6803F00703022B37D813F087FFC20EA4
:1027200043011B1A62F10002520242EAD3525B02D9
:102730001B1842F100014FEA811C4CEA936C9A018C
:10274000D31A6CEB010C1B184CF1000CDB0B43EAA9
:102750004C43234AC2F8B830536B1BB1926B002133
:10276000022098471E4BD3F8B430B3F5007F22D334
:102770001C4B1B6813F0070F12D11B4814F078FF95
:102780000020FFF751FF04B010BD184B029300204A
:102790000190009003460322124910F097FFBCE716
:1027A000134B0293002001900090034601220D4933
:1027B00010F08CFFE1E70A48026A591CC0F8B41017
:1027C000216842F8231000220023CDE9002341F2C2
:1027D0003432002378300DF0EBFBD4E7704700BFB4
:1027E00070100020F4060020E81000201499010069
:1027F0003499010010B584B01F4CC022002120463E
:1028000015F044F800221D4904F1400014F024FFA3
:1028100000221B4904F1780014F01EFF4FF4006001
:1028200014F0D7FF206240B1164B1B6803F007037A
:10283000022B14D8002004B010BD124B1B6813F0FB
:10284000070F02D16FF00B00F5E70F4B02930190D9
:102850000090034601220B4910F038FFF2E70B4BC2
:102860000293002401940094234603220549204644
:1028700010F02CFF2046DEE77010002099260000A3
:1028800029260000F40600205099010074990100E7
:102890002DE9F04186B01C46464B93F8B030002B32
:1028A00058D105460E461746DFF808813022002130
:1028B000404614F0EBFF0023C8F8B43025B11F22C6
:1028C0002946404615F01DF83A4B5E639F6301228E
:1028D00083F8B02000213848FFF724F9B0F1000850
:1028E0004BDB0CB941F28834610CE30340F2E73270
:1028F00098184FF47A724FF0000341F10001FDF790
:10290000E3FE02460B4600200021CDE900012B48E2
:102910000DF04EFB2A4B1B6803F00703022B0DD969
:10292000002D41D004940395264B02930020019082
:10293000009003460322224910F0C8FE002E35D035
:102940003A4600210120B0474FF00008404606B04B
:10295000BDE8F0811A4B1B6813F0070F02D16FF02E
:102960000F08F3E7184B02930020019000900346F4
:102970000122134910F0AAFEF1E7114B1B6813F076
:10298000070F04D10B4B002283F8B020DEE7CDF80F
:102990000C800E4B02930020019000900346012210
:1029A000074910F093FEEDE7094DBBE74FF0000833
:1029B000CCE700BF70100020F1260000B01000200E
:1029C000F4060020D099010098990100B8990100FF
:1029D0008C990100F0B587B0A0B10F46054690F87C
:1029E00030307BB1324B1B6803F00703022B1CD83D
:1029F000A86A08B949F27040FFF740F8002847DBA1
:102A0000002634E02A4B1B6813F0070F02D16FF049
:102A100015003DE0274B02930020019000900346F3
:102A20000122234910F052FEF1E7838C05910493B3
:102A30000390214B02930020019000900346032253
:102A40001B4910F043FED3E714F0010F2B6A0CBFB3
:102A50000121002153F82400FFF74AF80134A4B201
:102A6000AB8CA342F0D87B1EB34204D80136BE42E1
:102A700005D20024F4E711480CF01EFAF6E7FFF740
:102A80002DF80B4B1B6803F00703022B02D8002024
:102A900007B0F0BD0A4B0293002401940094234632
:102AA00003220349204610F011FE2046F0E700BF44
:102AB000F4060020F8990100089A0100E0A5010041
:102AC000389A01000C4B1B6813F0070F02D16FF00E
:102AD0008500704700B585B0084B02930020019037
:102AE000009003460122044910F0F0FD6FF08500CC
:102AF00005B05DF804FB00BFF40600204C9A01000D
:102B00000C4B1B6813F0070F02D16FF08500704764
:102B100000B585B0084B0293002001900090034659
:102B20000122044910F0D2FD6FF0850005B05DF878
:102B300004FB00BFF40600204C9A010040B108B528
:102B400011B96FF0850008BD034A0EF04DFDF8E79E
:102B50006FF08500704700BF649A0100002835D0EF
:102B60002DE9F04182B088461646074690F830308D
:102B70007BB389B303461C4A314640460EF034FD10
:102B80000446BB6A0093BB8C184A311A40440EF0CD
:102B90002BFD0444164A311B08EB04000EF024FD03
:102BA000051900240BE03B6A53F82430114A711BCD
:102BB00008EB05000EF018FD05440134A4B2BB8CEF
:102BC000A3420CD9B542EED3002009E06FF0150006
:102BD00070476FF0150003E06FF0150000E0002073
:102BE00002B0BDE8F08100BF809A0100949A010014
:102BF000B49A0100CC9A0100002800F095802DE9DC
:102C0000F04186B00C46864690F83030002B00F03C
:102C10008E80002900F08E80002121606160A1601B
:102C2000E160216161614FF0FF33A360838C236118
:102C30008C460D460A460F460E460846884608E072
:102C4000DB191F4646F1000601350CF1010C1FFA95
:102C50008CFCBEF82430634514D9DEF8203053F8DC
:102C60002C30A168994200D9A360E168994200D252
:102C7000E3601CF0010FE3D11B18184648F100086F
:102C80000132E2E722B100234146FDF71DFD20603D
:102C900035B12A46002338463146FDF715FD606000
:102CA000A36873B15B00254AB2FBF3F36361A3F53C
:102CB0000842B93A41F26E718A420CD849F2704327
:102CC00063611F4B1B6803F00703022B19D8002018
:102CD00006B0BDE8F081A3F50042E93A40F69E71E6
:102CE0008A4203D848F6A0436361EAE7A3F5144398
:102CF000713B40F69E729342E3D849F640436361CC
:102D0000DFE76369059363680493236803930D4BBE
:102D1000029300240194009423460322084920468C
:102D200010F0D4FC2046D3E76FF0150070476FF029
:102D30001500CDE76FF01500CAE700BF40420F0055
:102D4000F4060020D09A010010B58AB005280DD8ED
:102D5000DFE810F0060019003B004C00E700F80027
:102D6000814B1B6803F00703022B01D80AB010BD8A
:102D70007E4B0293002001900090034603227A4983
:102D800010F0FCFCF2E7784B1B6803F00703022B02
:102D900010D8754B1B6803F00703022BE6D9744B60
:102DA0000293002001900090034603226E4910F028
:102DB000E5FCDBE76F4B0293002001900090034697
:102DC0000322694910F0DAFCE3E7674B1B6803F064
:102DD0000703022BCAD9684B029300200190009090
:102DE00003460322604910F0C9FCBFE70C460029E6
:102DF000BCD05D4B1B6803F00703022B3CD85A4B39
:102E00001B6803F00703022B41D8574B1B6803F0E4
:102E10000703022B47D8544B1B6803F00703022B10
:102E20004ED804A92046FFF7E7FE00289ED14E4B5E
:102E30001B6803F00703022B4FD84B4B1B6803F0B2
:102E40000703022B53D8484B1B6803F00703022BE0
:102E50005AD8454B1B6803F00703022B86D9099B00
:102E60000393464B029300200190009003460322F7
:102E70003D4910F083FC79E7414B0293002001901B
:102E8000009003460322384910F078FCB7E703941A
:102E90003C4B0293002001900090034603223249EC
:102EA00010F06CFCB1E7A38C0393374B0293002026
:102EB00001900090034603222B4910F05FFCAAE723
:102EC000E36A0393314B0293002001900090034684
:102ED0000322254910F052FCA3E72D4B02930190E9
:102EE000009003460322204910F048FCA5E7049B0C
:102EF0000393284B02930020019000900346032285
:102F0000194910F03BFC9EE7059B0393224B02936B
:102F100000200190009003460322134910F02EFC7C
:102F200097E7114B1B6813F0060F3FF41FAF1B4BC5
:102F30000293002001900090034602220A4910F0FB
:102F40001DFC13E7084B1B6813F0070F3FF40EAF8F
:102F5000134B029300200190009003460122024986
:102F600010F00CFC02E700BFF00600200C9B0100F3
:102F70003C9B01001C9B01006C9B0100089C010014
:102F80008C9B0100A49B0100B09B0100BC9B010035
:102F9000D09B0100DC9B0100F09B0100249C010000
:102FA0004C9C010030B58FB0054601292CD95468DE
:102FB0003422002101A814F069FC4FF4006014F0E1
:102FC00008FC099030B3214601A8FFF77BFD041EE1
:102FD00027DB4FF4005014F0FCFB044668B14FF4BB
:102FE0000052014601A8FFF7B9FD224611492846C3
:102FF00011F059FD204614F0E3FB099814F0E0FBB2
:10300000002420460FB030BD0B4911F06AFD6FF06F
:103010001504F6E70949284611F063FD6FF00B042B
:10302000EFE722460649284611F05BFD099814F0A7
:10303000C7FBE6E7B89E0100689C0100889C010080
:10304000A49C010070B594B0054601291DD95668AD
:103050003422002107A814F019FC4FF4006014F08A
:10306000B8FB0F90B8B1314607A8FFF72BFD041E3F
:1030700018DB01A907A8FFF7BFFD0446D8B10F98D8
:1030800014F09EFB204614B070BD1D4911F029FDBF
:103090006FF01504F6E71B49284611F022FD6FF08A
:1030A0000B04EFE722461849284611F01AFD0F9845
:1030B00014F086FBE6E732461449284611F0F3FC8B
:1030C000059A1349284611F0EEFC019A1149284649
:1030D00011F0E9FC029A1049284611F0E4FC039A29
:1030E0000E49284611F0DFFC049A0D49284611F0DC
:1030F000DAFC069A0B49284611F0D5FCBFE700BF61
:10310000C09C0100889C0100A49C0100E09C01007F
:10311000F89C01000C9D0100209D0100349D0100E0
:10312000489D01005C9D010070B59CB005460229D8
:1031300036D914463426324600210FA814F0A6FBD7
:103140003246002102A814F0A1FB4FF4006014F0F5
:1031500040FB17904FF4006014F03BFB0A90179B64
:1031600023B318B361680FA8FFF7ACFC0646A1684B
:1031700002A8FFF7A7FC002E27DB002825DB0DF1B6
:10318000070202A90FA810F0B0FA064650B317982C
:1031900014F016FB0A9814F013FB30461CB070BDF7
:1031A000244911F09EFC6FF01506F6E722492846E7
:1031B00011F097FC179808B114F002FB0A9808B1B7
:1031C00014F0FEFA6FF00B06E7E71C49284611F0F1
:1031D00088FC179814F0F4FA0A9814F0F1FA6FF0DA
:1031E0001506DAE7A36862681549284611F05BFC0A
:1031F0009DF807201349284611F055FC9DF807302B
:103200005A2B08D8462B0BD8322B0ED90E492846FC
:1032100011F049FCBBE70D49284611F044FCB6E724
:103220000B49284611F03FFCB1E70A49284611F046
:103230003AFCACE7789D0100889C01009C9D010050
:10324000B49D0100CC9D0100289E0100E09D01007D
:10325000089E0100509E010070B5054601290DD958
:1032600056683046FFF74CFC041E0DDB3246094918
:10327000284611F018FC0024204670BD064911F0C4
:1032800030FC6FF01504F7E722460449284611F098
:1032900028FCF1E7A89E0100709E0100909E0100AD
:1032A00030B5ADF2044D05464FF480616846FFF736
:1032B00045FC041E09DB6A460749284611F0F3FB6A
:1032C000002420460DF2044D30BD22460349284615
:1032D00011F007FCF5E700BFB89E0100BC9E01009D
:1032E00070B50446012921D95668022924D841F233
:1032F00088351749204611F0D6FB3246154920463D
:1033000011F0D1FB2A461449204611F0CCFB134999
:10331000204611F0C8FB2B46224611493046FFF7E4
:10332000B7FA051E0DDB0025284670BD0D4911F0CA
:10333000D8FB6FF01505F7E7906814F0AFFA054673
:10334000D7E72A460849204611F0CBFBECE700BF3F
:10335000049F0100209F0100349F0100449F010051
:10336000492D0000D89E0100749F0100F0B58FB078
:10337000054601292CD9566802292FD80127342265
:10338000002101A814F082FA4FF4006014F021FA31
:10339000099040B3314601A8FFF794FB041E29DBD6
:1033A0003B4632461B49284611F07DFB394601A8B1
:1033B000FFF710FB0446099814F002FA002C22DBF8
:1033C0001549284611F06FFB002420460FB0F0BDD0
:1033D000124911F086FB6FF01504F6E7906814F0BF
:1033E0005DFA0746CBE70E49284611F07AFB6FF0ED
:1033F0000B04EAE722460B49284611F072FB0998B4
:1034000014F0DEF9E1E722460749284611F069FB8E
:10341000DBE700BFBC9F0100EC9F0100949F01000F
:10342000889C0100A49C0100D89F0100002947D07E
:1034300070B50D460668304610F0D6FA044606EB25
:10344000C003B268B2F5004F17D35B6813F0010FE9
:1034500015D004EB5303B2F5004F1FD356F83320B9
:103460009B1A9C421DD100222146304610F095F94E
:103470002146304610F015FB70BD5B88E6E7114C25
:10348000AF2322461049114810F049FC2946104844
:1034900010F045FCAF21204610F038FC36F8332000
:1034A000DEE7084CB72322460A49084810F037FCEB
:1034B0002946094810F033FCB721204610F026FCBD
:1034C000704700BFB4A10100D8A10100888F01009E
:1034D000ECA1010024A201004CA201002DE9F84357
:1034E000154606684B420B4001F1FF3919EA010904
:1034F0000CD0B268B2F5004F06D3082293425CD2DA
:103500001A464C46994609E00422F7E70C46B36890
:10351000B3F5004F4AD30822944249D9631E23428F
:103520004ED1002D74D0B368B3EBD50F73D96119A8
:10353000891AB3F5004F53D3082319440731C9083A
:10354000304610F009FB0746002867D00146304698
:1035500010F03FF900EB0908A04408F1FF38B8FB70
:10356000F4F804FB08F8A8EB090808EB0504073495
:1035700024F007044146304610F036FA0546A41BF5
:10358000E41087422ED306EBC503B268B2F5004FB4
:1035900032D35B6805EB53039C422FD301222946AB
:1035A000304610F0FAF84046BDE8F8830422B3E74D
:1035B000294610F022FB8046F5E74C469946ADE7D8
:1035C000184C4FF4A27322461749184810F0A7FB75
:1035D000174810F0A4FB4FF4A271204610F096FBA0
:1035E0000423AAE702463946304610F087F93946E7
:1035F000304610F02DFAC6E75B88CBE72246294615
:10360000304610F07BF92146304610F021FAC5E72C
:103610004FF00008C7E74FF00008C4E74FF000087C
:10362000C1E700BFB4A1010088A20100888F01009A
:10363000A4A201002DE9F04F85B0064615461C46B0
:10364000076800296AD08946002B6DD002F1FF3B44
:103650001BEA020F6CD1D7F808A0BAEBD30F40F2E7
:10366000BD80384610F0C0F9804607EBC0030193D7
:10367000BAF5004F6CD35B685A08009208EB53030D
:1036800002934146384610F0A4F8A9EB00030393D7
:10369000E118BAF5004F5ED3082319440731C90871
:1036A00015B119EA0B0F14D1009B994200F09880D4
:1036B00053D3029B07EBC3039B46BAF5004F5ED37F
:1036C0005B6813F0010F04D1009A02EB53038B42A5
:1036D00057D2224629463046FFF700FF0546C8B1BB
:1036E000BB68B3F5004F74D3019A52685208D200F8
:1036F000B3F5004F70D30823D21A039BD21AA2420B
:1037000028BF22464946284614F098F849463046D4
:10371000FFF78CFE284605B0BDE8F08F1A46294613
:10372000FFF7DCFE0546F5E7FFF780FE0025F1E731
:103730002C4C40F2891322462B492C4810F0EFFA0A
:103740002B4810F0ECFA40F28911204610F0DEFA16
:10375000019B5B8890E704239FE708EB0104224666
:103760004146384610F0CAF801224146384610F06A
:1037700014F82146384610F094F94D46CAE75B88A4
:103780009FE78C1A0299384610F039F9BB68B3F5F7
:10379000004F10D3DBF80430B4EB530F0ED3029A72
:1037A0004146384610F0EDF80122414638460FF008
:1037B000F4FF4D46AEE7BBF80230EDE702990C444A
:1037C0002246384610F09AF82146384610F040F963
:1037D000E5E7019A528889E704238DE7002599E7F8
:1037E0004D4697E7B4A1010088A20100888F01002F
:1037F000A4A20100F8B5B2F5802F01D2042A2BD97A
:10380000B2F5802F38D30823D21ACC1D24F0070438
:103810000A4422F00702121BD108172A2ED904608D
:10382000A1600023E360B2F5802F37D30820083071
:10383000A1EBD0030133B3FA83F3C3F1200CC3F13E
:1038400024039B0003F1070E4FEADE0606EBD000CF
:10385000884225D8002338E0414C4FF4F9732246C2
:103860004049414810F05BFA404810F058FA4FF4D4
:10387000F971204610F04AFA0423C5E7384C40F2AB
:10388000FB1322463A49384810F049FA374810F0FD
:1038900046FA40F2FB11204610F038FA0420C6E741
:1038A0002F4C4FF40373224632492F4810F037FA59
:1038B0002E4810F034FA4FF40371204610F026FA27
:1038C000181D002544F8205001336345F8DB7300D0
:1038D000B2F5802F31D36360B2F5802F2FD3002350
:1038E0002360B2F5802F2DD3636843F0010363603A
:1038F000881B47002EF00703E518B2F5802F26D36A
:103900006F60A568B5F5004F23D3E65022F007039A
:103910002244A568B5F5004F1DD300255560A26867
:10392000B2F5004F1AD3E050012220460FF035FFC8
:103930003146204610F08CF8F8BD6380CCE70023B8
:103940002380CEE7638843F001036380D0E76F8074
:10395000D7E7E652DAE700255580E0E7E052E3E7F3
:10396000B4A10100C4A20100888F0100E8A20100F7
:1039700004A3010030A301002DE9F04F91B005929E
:103980000393134602F004020092C3F3C20310F043
:103990000302019240F06A8280468A460133041D88
:1039A00000284FD0B8F1000F05D0A4EB0802043274
:1039B000524500F25E82039A551E019A04920692C5
:1039C000029200264FF0FF3B0427B946B8F1000FE2
:1039D00001D0039A22605A1E0792002B40F35C81AB
:1039E000059B13F0020229D00120A4EB08018B08EB
:1039F0001AB1B1F5007F80F06381029A0F2A00F2BC
:103A00006F81B8F1000F00F07F81DBB2029901F104
:103A100040026A4402F8103C02F820BC002800F082
:103A20006F8163F07F0301F140026A4402F8103CA9
:103A3000049B01330493029B01330293043400215D
:103A400040463DE001F0070A5444CAF1080AA9E7DC
:103A5000002634E0002632E0002630E00827B94690
:103A60002DE0252B2BD10BF1010B01260427B946A4
:103A700025E0472BEED82A2B14D32A3BDBB24FF09C
:103A8000010C0CFA03F34FF6DA7C13EA0C0F16D193
:103A900013F0625F40F0C08013F0010F40F08C80A3
:103AA00000260CE0252B03D10BF1FF3B002606E09E
:103AB00001D9002603E0202B01D0232BCCD11546C1
:103AC0006A1C6B78002B00F04981002EC9D07A2B3C
:103AD000BED84C2BCDD34C3B2E2B61D80FF2040C0F
:103AE0005CF823F0BF3A0000A13B0000A13B0000BE
:103AF000A13B0000A13B0000A13B0000A13B000056
:103B0000A13B0000A13B0000A13B0000A13B000045
:103B1000A13B0000B13B0000A13B0000A13B000025
:103B2000A13B0000A13B0000A13B0000A13B000025
:103B3000A13B0000A13B0000193C0000A13B00009C
:103B4000B13B0000B13B0000193C0000193C0000F3
:103B5000193C0000BF3A0000B13B00005D3A000094
:103B6000A13B0000BF3A0000A13B0000753C0000F3
:103B7000B13B0000753C0000A13B0000A13B0000F0
:103B80007D3C0000AB3B0000B13B0000A13B0000CE
:103B9000A13B0000B13B0000A13B0000A53B0000A1
:103BA00000268CE70427B94689E70427B94686E74B
:103BB0002B786C2B24D000263C44013CB4FBF7F45A
:103BC00007FB04F420B1231A4B44534500F25481FF
:103BD000002958D1B9F1040F00F0A780B9F1080FFE
:103BE00040F0AB801A9B073323F0070303F108056D
:103BF0001A9593ED007B08B184ED007B08345EE7F5
:103C000012F8023C6C2B03D000260427B946D3E7F8
:103C100000260827B946CFE72B784C2B1AD01A9BE1
:103C2000073323F0070303F108061A96D3E9006768
:103C3000073424F0070440B1231A0833534513D83E
:103C40002B784C2B13D0C4E90067083400260827D2
:103C5000B94634E71A9B073323F0070303F108063C
:103C60001A96D3E90067E3E76FF01B00FBE0C4E9B5
:103C70000067EAE700260427B9469DE7314600269B
:103C80000427B94698E780461A9B191D1A911B68AC
:103C90000393079B154699E67C4B039A9A4204D3FB
:103CA0007B4B9A420AD3002300E00023002B7FF4D1
:103CB00097AE059B03F00202002096E60123F5E78C
:103CC000744C4FF41F7322467349744810F027F860
:103CD000734810F024F84FF41F71204610F016F8C6
:103CE0006C4C40F2812322466B496C4810F017F867
:103CF0006C4810F014F840F28121204610F006F8CC
:103D0000069B0133069396E610B10AF1010A92E68A
:103D1000009B13B10AF1020A8DE60398FCF700FD3F
:103D20000AEB000303F1020A85E61A9B1D1D1A9592
:103D30001B6800B123600434C1E6564C40F2C62330
:103D40002246554955480FF0EAFF494656480FF0BC
:103D5000E6FF40F2C62120460FF0D8FF8046231A26
:103D6000B3F5806F13D210B3002202609B0803707A
:103D7000009B03B3069BC370049B88F802309BBB77
:103D8000019DDDF80890DDF810B0039F4DE0414C37
:103D900040F2D2232246404940480FF0C0FF43483A
:103DA0000FF0BDFF40F2D22120460FF0AFFF534489
:103DB000A3F1080057E0069B4370DDE7013398420A
:103DC000DED903F140026A4412F8101C12F9102CDB
:103DD000002AF3DA01F07F01A4EB08020132524518
:103DE0004DD804F8011BE9E7019B0298E7E7009B27
:103DF00043B305F140036B4413F8203C04F8013B46
:103E0000019EA4EB08033344013353453AD805F12E
:103E100040036B4413F8103C04F8013B324639462A
:103E2000204613F00BFD34440135A94519D9BBF1E7
:103E3000000FDCD005F140036B4413F9103C002B5C
:103E4000D5DAF1E705F140036B4413F8103C58F85C
:103E50002370002248F823203846FCF761FC461CFA
:103E6000CFE7A4EB080011B0BDE8F08F6FF00D00B4
:103E7000F9E76FF01B00F6E76FF01B00F3E76FF058
:103E80001B00F0E76FF01B00EDE700BFF87F0100BB
:103E900030E501005CA30100CC910100888F010096
:103EA000A4A30100C8A30100E4A30100FCA3010036
:103EB000014B1860704700BFC004002080B5054664
:103EC0000E46174698460BF0A9F8034614F08AF8F8
:103ED0000446DFF8189049F800304246394630462B
:103EE000A84754F8090005F0C1F800BF0800000019
:103EF00038B504460D462022002113F0C7FCEB68BC
:103F0000E361AB68A3612B6823626B686362002284
:103F1000A2622A6922612BB1591E0B4202D142F0E2
:103F20000102226104F12C000122002113F0E0F9CA
:103F300000B938BD054C2F232246054905480FF02E
:103F4000EEFE2F2120460FF0E1FE00BF28A4010065
:103F500050A40100888F010010B504468C46838B65
:103F6000002A12DB03F007035A1F012A19D9042B78
:103F700050D100210FF0E1FE20460FF008FF78B18C
:103F8000A38B43F02003A3830AE0D0E900018CE86F
:103F90000300002323606360012120460FF0CDFE63
:103FA00010BDD0E900018CE80300002222606260AD
:103FB000062B0FD0052B20D1002120460FF0BDFE8F
:103FC00020460FF0E4FE0028EAD0A38B43F0200344
:103FD000A383E5E7DCF8003053B1E28B0132E283E2
:103FE0001A461B68002BF7D0002AF5D11346F3E7D9
:103FF000022120460FF0A1FEE2E70D4C40F209132A
:1040000022460C490C480FF08AFE40F20911204666
:104010000FF07CFE064C40F21B132246074906486F
:104020000FF07DFE40F21B1120460FF06FFE00BF27
:104030005CA4010084A40100888F0100CC910100E0
:104040002DE9F04782B0838BE1B10446154603F0B9
:10405000070603F00802084692B301291FD002297F
:1040600021D143F02003A383143420460BF0DAFA65
:10407000002800F09D8185F31188BFF36F8F02B097
:10408000BDE8F087B94C40F233132246B849B9482D
:104090000FF045FE40F2331120460FF037FE43F09B
:1040A0001003A383E0E7B14C4FF49E732246B2495C
:1040B000B0480FF034FE4FF49E7120460FF026FEFC
:1040C00000230093019357E020460FF060FE55E077
:1040D000D4F818904A4669462046FFF73DFF00276E
:1040E000A38B03F00708B04500F00781A268002AFF
:1040F00000F00381012643F00803A38304F1140AAE
:1041000050460BF08FFA002800F0008185F31188EB
:10411000BFF36F8F002E40F00A81009B2BB14B46FE
:104120004246694620460FF073FE17B19349204678
:10413000B847EFF31185202383F31288BFF36F8F05
:1041400050460BF05FFA002800F0F78050460BF065
:1041500083FAA38B23F00803A383A38B13F0100F20
:1041600000F0FA8023F01003A3830120A68B06F051
:10417000070600283FF478AF0228A5D000283FF4B6
:1041800073AF0138042800F2AB8001A353F820F08C
:10419000D1400000E1420000A54100000D420000B6
:1041A000774200005EB92368B3B123691F6807B383
:1041B000062120460FF0C1FD4FF0000990E76B4C3F
:1041C0004FF4AB7322466E496A480FF0A8FD4FF4D6
:1041D000AB7120460FF09AFD644C40F25713224613
:1041E000684964480FF09BFD40F2571120460FF0DC
:1041F0008DFD5E4C4FF4AD73224663495D480FF070
:104200008EFD4FF4AD7120460FF080FD022E0BD1D4
:10421000E38BB3B923695F6807B3042120460FF02D
:104220008CFD4FF000095BE7504C40F25D132246D5
:10423000564950480FF073FD40F25D1120460FF0D3
:1042400065FD4A4C4FF4AF732246514949480FF07F
:1042500066FD4FF4AF7120460FF058FD434C40F21D
:1042600061132246484943480FF059FD40F261115D
:1042700020460FF04BFD012E0BD12368B3B123690B
:104280009F6807B3052120460FF057FD4FF0000946
:1042900026E7364C4FF4B27322463E4935480FF0BC
:1042A0003EFD4FF4B27120460FF030FD2F4C40F22E
:1042B0006513224633492F480FF031FD40F2651156
:1042C00020460FF023FD294C4FF4B47322462E49AB
:1042D00028480FF024FD4FF4B47120460FF016FD6E
:1042E000224C40F26B1322462B4922480FF017FD57
:1042F00040F26B1120460FF009FD009A0AB100262A
:10430000F9E6002F3FF429AF0026F4E6234C40F2F3
:1043100031132246224917480FF001FD514621482A
:104320000FF0FDFC40F2311120460FF0EFFC4A4641
:10433000414620460FF009FDEFE6184C882322463F
:1043400019490C480FF0EBFC514618480FF0E7FCF8
:10435000882120460FF0DAFC13F0200F04D023F060
:104360002003A383022001E70020FFE65CA40100F4
:10437000ACA40100888F0100BCA40100E54300004B
:10438000D0A40100DCA4010000A5010018A50100D3
:1043900030A5010040A50100CC91010058A5010005
:1043A00088A50100A0A50100B8A50100D0A50100C5
:1043B000084D40F231132A46074908480FF0AFFC78
:1043C000214607480FF0ABFC40F2311128460FF0B0
:1043D0009DFC00BF58A5010088A50100888F010041
:1043E000A0A50100F8B504460D4600F11406EFF350
:1043F0001187202383F31288BFF36F8F30460BF0B1
:1044000001F948B130460BF027F9A5613A46012180
:104410002046FFF715FEF8BD074C882322460749C2
:1044200007480FF07CFC314606480FF078FC8821E5
:1044300020460FF06BFC00BF58A50100B8A5010095
:10444000888F0100D0A501002DE9F0470446884679
:104450000FF0B6FC061E46DB04F11407EFF3118AD9
:10446000202383F31288BFF36F8F38460BF0CAF80E
:104470008146A8B138460BF0EFF8A58B05F007058B
:10448000E38B4FF6FF7293424BD02E46022D16D08F
:10449000062D39D8DFE805F0314C3838312A3100A3
:1044A0003B4C882322463B493B480FF038FC3946B9
:1044B0003A480FF034FC882120460FF027FC0133E6
:1044C000E38300231A4642B10022C8F80020626844
:1044D000AAB3C2F80080C4F80480ABB352460221EC
:1044E0002046FFF7ADFD3046BDE8F0876FF085064A
:1044F0004FF000094B464A46E5E7B5FA85F35B09FC
:104500004A464FF00009DEE7254C4FF4E47322469B
:10451000244921480FF003FC4FF4E47120460FF0CA
:10452000F5FB6FF00A064FF000094B464A46CAE712
:104530006FF004064FF000094B464A46C3E7C4F843
:104540000480C4F80080C8E738460BF06BF868B107
:104550008AF31188BFF36F8FB9F1000FC3D0002326
:104560002A46414620460FF040FCBCE7084C40F28A
:10457000311322460C4908480FF0D1FB39460B484D
:104580000FF0CDFB40F2311120460FF0BFFB00BF12
:1045900058A50100B8A50100888F0100D0A5010031
:1045A0005CA4010040A5010088A50100A0A50100B0
:1045B00010B50346426802F003028160022A11D05E
:1045C000032A0CD0012A10D00C4C452322460C495A
:1045D0000C480FF0A4FB452120460FF097FB046820
:1045E000002004E00068002401E0002420460022AE
:1045F0005A6008B10CF0A2F9204610BDE8A50100F0
:10460000CC910100888F01002DE9F04182B08046F5
:104610000E46154600272A4601A940460FF04AFCDF
:10462000044602463146019813F008F9274426440F
:104630002D1B01D0002CEED1394640460FF05AFC1C
:1046400018B9384602B0BDE8F081054C492322462E
:10465000044905480FF063FB492120460FF056FB43
:1046600010A6010050A40100888F01002DE9F0413F
:1046700082B080460E461546002709E002460199A1
:10468000304613F0DBF8264427442D1B09D044B1F3
:104690002A4601A940460FF04BFC0446002EEDD1FE
:1046A000F2E7394640460FF060FC18B9384602B0D0
:1046B000BDE8F081054C8E232246054905480FF0E0
:1046C0002EFB8E2120460FF021FB00BF10A601001B
:1046D00050A40100888F010010B1436858797047D9
:1046E00010B5064C40F233132246054905480FF039
:1046F00016FB40F2331120460FF008FB3CA60100E8
:1047000074A60100888F010010B520B10268D2683C
:1047100002B1904710BD054C8B2322460449054841
:104720000FF0FDFA8B2120460FF0F0FA3CA60100B5
:1047300074A60100888F010010B520B102681269CB
:1047400062B1904710BD064C9E232246054906489B
:104750000FF0E5FA9E2120460FF0D8FA0020F1E78D
:104760003CA6010074A60100888F010010B518B1A5
:1047700002689268904710BD054CD0232246054937
:1047800005480FF0CCFAD02120460FF0BFFA00BF49
:104790003CA6010074A60100888F010010B520B16D
:1047A00071B102681268904710BD0B4CB2232246CB
:1047B0000A490B480FF0B3FAB22120460FF0A6FACF
:1047C000054CB3232246074905480FF0A8FAB32148
:1047D00020460FF09BFA00BF3CA6010074A6010022
:1047E000888F01008CA601002DE9F041074605469F
:1047F000EDB195FAA5F6B6FA86F60E4C04EB061462
:104800000123B3406FEA030825EA0305237B002B4D
:10481000EED02046FFF790FF0028E9D107EA08070D
:10482000636804221968204600F0BCFAE0E73846C5
:10483000BDE8F0819C8301002DE9F041314B324A03
:104840009B1A8F2B12D880460F46304BBFF35B8FDD
:1048500053E8006F721C43E800210029F8D1BFF330
:104860005B8F002E4AD1284C002514E0284C40F2E2
:1048700041132246274928480FF051FA40F24111CE
:1048800020460FF043FA636804221968204600F0BE
:1048900089FA013510341B4B9C4211D8194B9C42AC
:1048A0001ED2237B002BF4D02046FFF72DFF20469D
:1048B000FFF742FF0028E6D00123AB401E43E8E7A4
:1048C000134C4FF4A7732246144913480FF027FAEC
:1048D00013480FF024FA4FF4A77120460FF016FA90
:1048E000B8F1000F0BD056B13046FFF77DFF0646FA
:1048F000002FF8D00A200FF05DFBF4E700263046C9
:10490000BDE8F081BC8301009C8301006819002090
:10491000A0A60100D0A60100888F010000A7010019
:1049200024A7010038B50546144C00E01034144BA0
:104930009C4212D8124B9C421FD22046FFF7CCFE5D
:104940000028F3D0294620460FF051FB0028EDD077
:1049500029462046FFF722FFE8E70A4C40F2F5130C
:104960002246094909480FF0DAF909480FF0D7F94A
:1049700040F2F51120460FF0C9F938BD9C830100C3
:10498000BC830100A0A6010000A70100888F0100E0
:1049900024A70100014B53F82000704744A70100F1
:1049A00048B108B5054A1060054B1960084600F08B
:1049B00071FC002008BD6FF015007047C404002092
:1049C0005C19002008B50023064A1370064A1360DC
:1049D000064A13604FF400410548FFF7E1FF00F07D
:1049E00057F908BD9D25002060190020641900209A
:1049F000AD3F0100174B1B7803B1704710B5002184
:104A00000120FFF719FF144C00E01034134B9C42B7
:104A10000BD8124B9C4218D22046FFF75DFE0028AF
:104A2000F3D02046FFF7A2FEEFE70D4C4FF4DD7305
:104A300022460C490C480FF072F90C480FF06FF940
:104A40004FF4DD7120460FF061F9024B01221A701C
:104A500010BD00BF9D2500209C830100BC83010088
:104A6000A0A6010000A70100888F010024A7010073
:104A7000014B01221A7070479C2500200D4BBFF39B
:104A80005B8F53E8001F013143E80012002AF8D180
:104A9000BFF35B8F00B97047074BBFF35B8F53E8E1
:104AA000001F013943E80012002AF8D1BFF35B8FE1
:104AB000F1E700BF601900206419002010B504461A
:104AC000044B1B689847A060214603480FF0B1FAD9
:104AD00010BD00BFC404002094060020014800EB74
:104AE00081007047DC06002010B1436818797047D8
:104AF00010B5054CED232246044905480FF00FF987
:104B0000ED2120460FF002F93CA6010074A6010039
:104B1000888F010010B143681971704710B5054CBA
:104B2000DF232246044905480FF0F9F8DF2120462B
:104B30000FF0ECF83CA6010074A60100888F01007C
:104B400028B142681160436801225A71704710B55C
:104B5000064C4FF48C732246054906480FF0DFF8E7
:104B60004FF48C7120460FF0D1F800BF3CA6010035
:104B700074A60100888F010010B14368587970470E
:104B800010B5064C40F233132246054905480FF094
:104B9000C6F840F2331120460FF0B8F83CA60100E9
:104BA00074A60100888F010018B1436800225A7171
:104BB000704710B5064C40F22513224605490648B9
:104BC0000FF0ADF840F2251120460FF09FF800BF1E
:104BD0003CA6010074A60100888F01000248034B27
:104BE000C01AC008704700BF9C8301000483010005
:104BF00010B50C46FFF7F2FFA04203D9024B53F861
:104C0000340010BD0020FCE70483010010B50C4601
:104C1000FFF7E4FFA04204D9034B03EBC403187968
:104C200010BD0020FCE700BF04830100F8B5064674
:104C30000D4614461F460846FFF7D0FF84420DD2AA
:104C4000CFB1002C1CDB2146E8B2FFF747FF00681C
:104C500006EB4606F04000F0070010E0094C4FF468
:104C6000D4732246084909480FF059F84FF4D4711B
:104C700020460FF04BF82146E8B2FFF7C7FFF8BD1A
:104C80000420FCE758A70100A4A70100888F0100B9
:104C900010B5002410E021460020FFF7B7FF0A4AB4
:104CA00052F8243023F0070342F8243000F00700C4
:104CB000034342F824300134044B054A9B1AB4EBF9
:104CC000D30FE8D310BD00BFDC0600209C83010099
:104CD000048301002DE9F84304460D461646984624
:104CE0000846FFF77BFF864222D2002C2DDBE4B280
:104CF0000023324629462046FFF798FF38B10023AB
:104D0000324629462046FFF791FF40453ED8002312
:104D1000324629462046FFF789FF074670BB3B46CF
:104D20003246E9B220460FF0ACF93846BDE8F883C8
:104D3000174C4FF4DE732246164917480EF0EFFF6A
:104D40004FF4DE7120460EF0E1FF144B144AA3EB42
:104D500002094FEA1919002427464C45E5D21048AC
:104D600000EB0410FFF7C0FE434632462946FFF72A
:104D7000B1FF874238BF07460134EEE700233246D1
:104D800029462046FFF752FF0746C8E74746C6E7D1
:104D900058A70100A4A70100888F0100BC8301006F
:104DA0009C83010070B504460E461546094BC31A94
:104DB0001B110133D9B2FFF7ADFE63689D7129461F
:104DC00020460FF0A8F931462046FFF7B9FEFFF75D
:104DD0004FFE70BD9C8301002DE9F04F87B004AFFA
:104DE0000646884615469946D7F830B0D7F838A019
:104DF000BAF1000F2DD0FB6B7B60009353467A6BAA
:104E000010210020FEF7B8FD002815DBB0F5006F7B
:104E100020D32F4B1B6813F0060F48D040F2FF73CE
:104E200003932C4B02930020019000900346022232
:104E300027490FF0B9F93AE0274C40F265132246B2
:104E4000264927480EF06BFF40F2651120460EF010
:104E50005DFF0020014600EB0B03173300246FF3C6
:104E600000046FF341046FF3820466F3C50465F335
:104E7000881460F353246BF31F5423F00703ADEB46
:104E8000030D04AD6B4613F120000AD0BAF1000FF8
:104E900007D0FB6B009353467A6BFEF76DFD00283D
:104EA00009DB4B462246414628460FF066F90C378F
:104EB000BD46BDE8F08F084C40F2851322460749F5
:104EC00007480EF02CFF40F2851120460EF01EFF21
:104ED0000407002010A80100D8A7010004A80100C1
:104EE000888F0100406820B1034BC01A40F38F0047
:104EF00070474FF0FF307047DC0600200EB400B55D
:104F000082B0014603AB53F8042B0193034804F02D
:104F100085FD02B05DF804EB03B07047F541010078
:104F200010B584B011F0440F05D01A4B1B6833B98B
:104F3000002004B010BD1849FFF7E0FFF9E717495A
:104F40000968B2FBF1F2B2FBF3FC03FB1C224FF445
:104F50007A7E0EFB02F2B2FBF3F403FB14210EFB8C
:104F600001F1B1FBF3F10E4AA2FB0C32D20A4FF46D
:104F7000616303FB12CC0B4BA3FB0CE35B090291B7
:104F80000194C3EB0311ACEB810100910649FFF7DB
:104F9000B5FFCEE77019002048A801006C19002069
:104FA000C5B3A2918988888854A8010061B108B569
:104FB0002AB1064A52F8232012B9054A00E0044AF1
:104FC0000449FFF79BFF08BD704700BF0CA9010013
:104FD00070A80100649801002DE9F04105461746CC
:104FE000069EDDF81C8081B900242EB1324611499D
:104FF0002846FFF783FF0444B8F1000F14D06FB1C7
:10500000099B042B13D00C4909E00C4B099A53F867
:1050100022200B49FFF772FF0446E6E706494246A5
:105020002846FFF76BFF04442046BDE8F0810549A0
:10503000F5E700BF8CA801007CA8010020A90100B1
:1050400084A8010078A801002DE9F04F87B00492F0
:1050500005939DF84C60042E30D805460C4601F0AF
:10506000020B01F0010AC1F3C00801F480790EF0CF
:10507000F4FF024678B31C492846FFF73FFF074676
:10508000BBF1000F29D13246514628460FF0D0F827
:10509000B9F1000F01D0002311930396129B0293E4
:1050A000119B0193109B00930023049A41462846CC
:1050B000FFF792FF384407B0BDE8F08F0B4C40F289
:1050C000462322460A490B480EF029FE40F24621AB
:1050D00020460EF01BFE0027D2E7059A21462846FF
:1050E000FFF71EFF0744CEE7CCA8010090A80100FF
:1050F000C0A80100888F010011F0100F0BD108B576
:1051000011F0200F03D00449FFF7F8FE08BD034952
:10511000FFF7F4FEFAE770471CCA010034E3010010
:105120002DE9F04105460F46164698460699FFF7C9
:10513000E3FF0024444505DA24492846FFF7DEFE54
:105140000134F7E7002409E020492846FFF7D6FE9E
:105150000BE01F492846FFF7D1FE01340F2C0CDC71
:10516000002C02DD14F0070FEED0B442F1D23A5D0C
:1051700018492846FFF7C2FEEFE717492846FFF710
:10518000BDFE002409E011492846FFF7B7FE0BE0F9
:1051900012492846FFF7B2FE01340F2C13DC002C15
:1051A00002DD14F0070FEED0B44207D23A5D0C4B8B
:1051B0009B5C13F0970FEBD12E22E9E703492846B9
:1051C000FFF79CFEE8E7BDE8F08100BF88A801007A
:1051D000D8A80100D0A80100DCA8010060B7010038
:1051E00001E401002DE9F04184B004469DF82C5003
:1051F0000C9F0E9EA5B9012B20D020484FF000082F
:1052000037B13B4622461E490EF03CFD002819DB13
:105210002EBB6DBB20460EF0D6FF04B0BDE8F0817A
:1052200003950A980290019300920B4600220F9971
:105230002046FFF709FF80461248E1E711484FF08A
:105240000008DDE7104C4FF4287322460F49104840
:105250000EF065FD4FF4287120460EF057FD0F9BB0
:105260000093434632460D9920460EF0F9FFD0E7F1
:105270002A460F9920460EF0E7FFCBE713420100C4
:105280001D9A0000F541010090A80100E0A801006E
:10529000888F0100074B01221A6004E04008054A8C
:1052A00013685B001360044B9842F7D8034B1860F7
:1052B000704700BF6C19002040420F007019002099
:1052C000034B01221A70034B034A1A60704700BF58
:1052D0009E250020901900209419002008B5034B4A
:1052E00001221A7002480FF009F808BD9F2500201E
:1052F00060A90100014B1960002070478819002047
:1053000008B518B9044B00221A7008BD41F2883064
:1053100011F043FFF9E700BF9E25002038B5044691
:105320000A4B01221A700A4B1B782BB938BD651E37
:105330002046FFF7E5FF2C46002007F05BFC002825
:10534000F4D0024B1B78002BF1D1EFE79E25002013
:105350009F250020F8B506460D46042706E038468E
:10536000FFF7DCFF9CB90D4B1B7883B12A46314611
:10537000002007F0D7FB04460028F0D1074B1B782C
:10538000002BEFD0013F3846FFF7BAFFEAE714B928
:10539000024B1B7803B92C462046F8BD9E25002001
:1053A00010B50C46044B1868FFF7F4FA03460F22B9
:1053B00021460248984710BD8819002060A90100C5
:1053C000014B03600020704770A9010010B504462E
:1053D00011F02CF90246034920460FF064FB00202F
:1053E00010BD00BF9CA9010030B583B0054613462F
:1053F0000022019201AA0A21586802F0EFF8019CEC
:1054000024B90EF092FF204603B030BD2246034976
:1054100028460FF066FB019CF5E700BFCCA9010010
:1054200008B5034A03490FF03EFB002008BD00BF4A
:10543000C8AA0100D0AA01002DE9F04182B00646B9
:1054400015460023019301AA0A21A86802F0C6F8B4
:10545000019C9CB98046C3B2042B16D868680EF034
:1054600030FE071E1BDB3AB25FFA88F300210846C4
:105470000EF041FE204602B0BDE8F08122460B4905
:1054800030460FF02EFB019CF4E7C2B208493046CB
:105490000FF027FB30460FF033FB0124EAE76A6880
:1054A000044930460FF01DFBDDE700BFFCAA0100F8
:1054B00024AB01003CAB010010B5044606F072F9C4
:1054C0000246074920460FF0EEFA064920460FF043
:1054D000EAFA214604480AF021F9002010BD00BF75
:1054E000A0AB0100C0AB0100ED54000070B58EB060
:1054F00004460D46D0F89C6011F049FF034612F0B7
:1055000071FD214A1258944229D0204A4BB300938E
:1055100023461F4928460FF0C6FAD4E90A23CDE9ED
:10552000002394F90E30227B1A4928460FF0BBFA6B
:10553000202205A9204608F027FB0246636E164983
:1055400028460FF0B0FA0DA9204611F040FF0246A0
:1055500048B1124928460FF0A6FA0EB070BD104AA5
:10556000D4E7104BD3E70D9BF11A642201FB02F242
:10557000B2FBF6F202920196009132460A492846A1
:105580000FF091FAE9E700BF0800000088A80100C9
:10559000D0AB0100DCAB010008AC010020AC010085
:1055A00074C30100CCAB010050AC010070B590B0E9
:1055B00005460024089409940A940B940C940D94C5
:1055C0000E940F944FF02033089309930A930B9392
:1055D0000C930D93ADF8383001461D480AF09EF843
:1055E00014B1002010B070BD04EB0413194E06EB8B
:1055F000C31607AA4FF4046106F1400011F0D5FE6E
:10560000D0B9079AC2F50461642301FB03F3124881
:10561000A0FB03035B0A05934FF404630493039117
:105620000292019308AB0093234632460B49284669
:105630000FF039FA0134D3E7094C502322460949C7
:1056400009480EF06CFB502120460EF05FFB00BFB6
:105650006D560000802E0020E1830F3EE8AC010073
:10566000A0AC010050A40100888F0100F0B589B002
:1056700004460D46D0F89C6007A911F0A8FEB8B901
:10568000204611F084FE0799771A642207FB02F284
:10569000B2FBF6F2034688B1049203960297019199
:1056A00000962246064928460FF0FDF909B0F0BDE4
:1056B0000246044928460FF0F6F9F7E7024BEBE7FC
:1056C00034AD010020AC0100CCAB010010B50346A5
:1056D0000C461146006808B1027822B9024A2046F9
:1056E0000BF082FF204610BD9CAD01002DE9F0417A
:1056F00086B0064605A807F0B3FA00EB4000059B0C
:1057000003EBC008224A082130460FF0BEF9059C81
:105710000CE0204B204A082130460FF0B6F96369AF
:105720001BB11D680DB12B68A3B9183444452AD2AA
:10573000142269462046FFF7C9FF0346174A08218D
:1057400030460FF0A2F9204611F02DFD0028E0D0E0
:10575000134BDFE7134A082130460FF096F9002774
:105760002B68BB4209D905EB87035B680E4A082109
:1057700030460FF08AF90137F2E70C4A082130462B
:105780000FF083F9D1E7002006B0BDE8F08100BF3B
:10579000B8AD0100ACAD0100CCAD0100C4AD01005D
:1057A000A4AD0100D4AD0100FCCE01001CCA010073
:1057B00008B5102A12D0202A13D0082A06D00A4A87
:1057C00008210FF062F96FF0150006E00B78DBB2EC
:1057D000064A08210FF059F9002008BD0B889BB23A
:1057E000F6E70B68F4E700BF58AE010070AE0100A9
:1057F00008B5029B102A0ED0202A10D0082A06D005
:10580000084A08210FF041F96FF0150002E0DBB201
:105810000B70002008BD9BB20B800020FAE70B60E4
:105820000020F7E758AE01002DE9F04182B00446B0
:105830000D4616461022002170680BF097FF0746B0
:10584000022D20D84FF020084346164A0821204652
:105850000FF01BF9032D1ED910220021F0680BF068
:1058600085FF05460346104A082120460FF00DF932
:10587000009500230193424639462046FFF7B8FFC2
:1058800002B0BDE8F0810A220021B0680BF06EFF83
:105890005FFA80F8D8E7424639462046FFF788FF8E
:1058A000EEE700BF84AE01009CAE010038B50446AF
:1058B0000D4611B10E4B1B785BB90D4A137883F07E
:1058C000010313705BB92946204601F0ABFC0020B0
:1058D00038BD08490FF005F96FF00F00F8E70649E9
:1058E00020460FF0E0F8024B01221A70EBE700BFF0
:1058F000A0250020B0AE0100ECAE0100F8B50746CF
:105900000E4615460023244A1370244A1360244A85
:1059100013600CE000231C4402222249204611F0AF
:10592000DEFF98B91C4B01221A700435013E012E8E
:105930001DD96C6802221C49204611F0D0FF0028B6
:10594000E8D1A378002BE6D00123E4E716492046EE
:10595000FAF7D4FE50B123782D2B08D1637833B1F8
:105960002246124938460FF09EF8DEE70435002241
:10597000114668680BF0FAFE0D4B186000221146C4
:1059800068680BF0F3FE0B4B18600B493846FFF7C5
:105990008DFF0020F8BD00BFA2250020B019002017
:1059A000B41900201CAF010018AF010020AF0100A6
:1059B000BC190020B8190020BD59000038B50546B3
:1059C000554B1B78182B01D0002305E00B78112BC9
:1059D00032D0002300E0013302F1FF3C9E469C459B
:1059E00009D9CC5C182CF6D18E449EF80100112800
:1059F000F1D1012300E00023F3B911F80C20464B4C
:105A00001A700A78A2F13003DBB2092B09D9A2F18E
:105A10006103DBB2052B04D9A2F14103DBB2052BF4
:105A200005D83E490B683E48C25401330B603B4BDE
:105A30001B68022B5DD038BD3A4B1A683A4928469C
:105A40000FF031F800212846FFF730FF374B1B7865
:105A5000002BF0D113E0364D2A681068030A03F4D6
:105A60007F4343EA1063040204F47F04234343EAC0
:105A7000006342F8043B2A6004392A4B1960294B21
:105A800019680429E7DC11F0030F0FD1284B1868BF
:105A90000268130A03F47F4343EA1263110201F41C
:105AA0007F010B4343EA02630360C4E74B4201F00A
:105AB000030103F0030358BF594202290FD0032901
:105AC000B9D11B4B19680B68C3F3074203F47F403D
:105AD00002431B0403F47F0313430B60ABE7144B37
