:10000000804B00204D96000025C801003996000065
:100010003996000039960000399600000000000073
:100020000000000000000000000000000D9800002B
:100030003996000000000000699700003996000022
:10004000819B0000819B0000819B0000819B000040
:10005000819B0000819B0000819B0000819B000030
:10006000819B0000819B0000819B0000819B000020
:10007000819B0000819B0000819B0000819B000010
:10008000819B0000819B0000819B0000819B000000
:10009000819B0000819B0000819B0000819B0000F0
:1000A000819B0000819B0000819B0000819B0000E0
:1000B000819B0000819B0000819B0000819B0000D0
:1000C000819B0000819B0000819B0000819B0000C0
:1000D000819B0000819B0000819B0000819B0000B0
:1000E000819B0000819B0000819B0000819B0000A0
:1000F000819B0000819B0000819B0000819B000090
:1001000081F0004102E000BF83F0004330B54FEAC8
:1001100041044FEA430594EA050F08BF90EA020F35
:100120001FBF54EA000C55EA020C7FEA645C7FEAC8
:10013000655C00F0E2804FEA5454D4EB5555B8BFEB
:100140006D420CDD2C4480EA020281EA030382EA5C
:10015000000083EA010180EA020281EA0303362DEE
:1001600088BF30BD11F0004F4FEA01314FF4801CC1
:100170004CEA113102D0404261EB410113F0004FD3
:100180004FEA03334CEA133302D0524263EB43038A
:1001900094EA050F00F0A780A4F10104D5F1200E28
:1001A0000DDB02FA0EFC22FA05F2801841F1000183
:1001B00003FA0EF2801843FA05F359410EE0A5F157
:1001C00020050EF1200E012A03FA0EFC28BF4CF088
:1001D000020C43FA05F3C01851EBE37101F000453E
:1001E00007D54FF0000EDCF1000C7EEB00006EEB4B
:1001F0000101B1F5801F1BD3B1F5001F0CD34908D5
:100200005FEA30004FEA3C0C04F101044FEA44522B
:1002100012F5800F80F09A80BCF1004F08BF5FEAB2
:10022000500C50F1000041EB045141EA050130BD92
:100230005FEA4C0C404141EB0101013C28BFB1F5A4
:10024000801FE9D291F0000F04BF01460020B1FAEF
:1002500081F308BF2033A3F10B03B3F120020CDAC2
:100260000C3208DD02F1140CC2F10C0201FA0CF0A0
:1002700021FA02F10CE002F11402D8BFC2F1200C05
:1002800001FA02F120FA0CFCDCBF41EA0C019040BB
:10029000E41AA2BF01EB0451294330BD6FEA040404
:1002A0001F3C1CDA0C340EDC04F11404C4F12002EF
:1002B00020FA04F001FA02F340EA030021FA04F301
:1002C00045EA030130BDC4F10C04C4F1200220FA58
:1002D00002F001FA04F340EA0300294630BD21FA96
:1002E00004F0294630BD94F0000F83F4801306BF5C
:1002F00081F480110134013D4EE77FEA645C18BF50
:100300007FEA655C29D094EA050F08BF90EA020FE6
:1003100005D054EA000C04BF1946104630BD91EADE
:10032000030F1EBF0021002030BD5FEA545C05D1E1
:100330004000494128BF41F0004130BD14F5800420
:100340003CBF01F5801130BD01F0004545F0FE4194
:1003500041F470014FF0000030BD7FEA645C1ABFC9
:10036000194610467FEA655C1CBF0B46024650EA00
:10037000013406BF52EA033591EA030F41F400212C
:1003800030BD00BF90F0000F04BF0021704730B5B2
:100390004FF4806404F132044FF000054FF0000187
:1003A00050E700BF90F0000F04BF0021704730B548
:1003B0004FF4806404F1320410F0004548BF40421D
:1003C0004FF000013EE700BF42004FEAE2014FEA72
:1003D00031014FEA02701FBF12F07F4393F07F4F4D
:1003E00081F06051704732F07F4208BF704793F050
:1003F0007F4F04BF41F40021704730B54FF4607463
:1004000001F0004521F000411CE700BF50EA010265
:1004100008BF704730B54FF000050AE050EA01020E
:1004200008BF704730B511F0004502D5404261EB7E
:1004300041014FF4806404F132045FEA915C3FF4BF
:10044000D8AE4FF003025FEADC0C18BF03325FEA5C
:10045000DC0C18BF033202EBDC02C2F1200300FA0D
:1004600003FC20FA02F001FA03FE40EA0E0021FA32
:1004700002F11444BDE600BF4FF0FF3C06E000BFB0
:100480004FF0010C02E000BF4FF0010C4DF804CD1D
:100490004FEA410C7FEA6C5C4FEA430C18BF7FEADD
:1004A0006C5C1BD001B050EA410C0CBF52EA430C0B
:1004B00091EA030F02BF90EA020F0020704710F18B
:1004C000000F91EA030F58BF994208BF90422CBF1A
:1004D000D8176FEAE37040F0010070474FEA410C13
:1004E0007FEA6C5C02D150EA013C07D14FEA430C31
:1004F0007FEA6C5CD6D152EA033CD3D05DF8040BA2
:10050000704700BF8446104662468C4619466346D3
:1005100000E000BF01B5FFF7B7FF002848BF10F1AA
:10052000000F01BD4DF808EDFFF7F4FF0CBF0120EF
:1005300000205DF808FB00BF4DF808EDFFF7EAFF6B
:1005400034BF012000205DF808FB00BF4DF808ED26
:10055000FFF7E0FF94BF012000205DF808FB00BF1B
:100560004DF808EDFFF7CEFF94BF012000205DF8A5
:1005700008FB00BF4DF808EDFFF7C4FF34BF0120B2
:1005800000205DF808FB00BF4FEA4102B2F1E043F2
:1005900024BFB3F5001CDCF1FE5C0DD901F0004C6A
:1005A0004FEAC0024CEA5070B2F1004F40EB8300BA
:1005B00008BF20F00100704711F0804F21D113F1E6
:1005C0003872BCBF01F00040704741F480114FEA1F
:1005D0005252C2F11802C2F1200C10FA0CF320FAA8
:1005E00002F018BF40F001004FEAC1234FEAD323C5
:1005F00003FA0CFC40EA0C0023FA02F34FEA43032F
:10060000CCE77FEA625307D150EA01331EBF4FF0B7
:10061000FE4040F44000704701F0004040F0FE40D2
:1006200040F40000704700BF7BB972B90029BEBF1B
:1006300000204FF0004106E008BF00281CBF6FF00B
:1006400000414FF0FF3000F057B8ADF1080C6DE9F4
:1006500004CE002909DB002B1ADB00F07CF8DDF862
:1006600004E0DDE9022304B07047404261EB410140
:10067000002B1BDB00F06FF8DDF804E0DDE902235E
:1006800004B0404261EB4101524263EB43037047C7
:10069000524263EB430300F05EF8DDF804E0DDE96D
:1006A000022304B0404261EB41017047524263EBC8
:1006B000430300F050F8DDF804E0DDE9022304B064
:1006C000524263EB4303704753B94AB9002908BF4C
:1006D00000281CBF4FF0FF314FF0FF3000F00CB886
:1006E000ADF1080C6DE904CE00F035F8DDF804E05A
:1006F000DDE9022304B07047704700BF10F8012BFA
:1007000011F8013B012A28BF9A42F7D0D01A70474E
:10071000034611F8012B03F8012B002AF9D1704789
:10072000034613F8012B002AFBD1181A0138704731
:10073000430803F05533C01A00F03333800800F04B
:100740003330184400EB10104FF0013300F00F303D
:100750005843000E70472DE9F04786468C46084600
:10076000089E154674461946002B40F0C28085420B
:10077000B2FA82F245D94AB1C2F1200300FA02FC72
:100780002EFA03F3954043EA0C0C94404FEA154EC1
:10079000A8B2BCFBFEF8230C0EFB18CC08FB00F93A
:1007A00043EA0C43994528D9EB1808F1FF3704D2E6
:1007B000994502D9A8F102072B44A3EB0903A4B27F
:1007C000B3FBFEFC0EFB1C330CFB00F044EA0344BD
:1007D000A04214D92C190CF1FF3304D2A04202D943
:1007E000ACF102032C44241A43EA07401EB1D44062
:1007F000002334607360BDE8F0874746DDE7634659
:10080000F1E792BB431B01214FEA154EAFB2B3FB98
:10081000FEFC200C0EFB1C330CFB07F840EA0343E4
:10082000984562D9EB180CF1FF3004D2984502D9F3
:10083000ACF102002B44A3EB0803A4B2B3FBFEFC13
:100840000EFB1C330CFB07F744EA0344A7424ED9C6
:100850002C190CF1FF3304D2A74202D9ACF10203E8
:100860002C44E41B43EA0040C0E7C2F1200320FA15
:1008700003F1954090402EFA03F303434FEA154EDF
:10088000AFB2B1FBFEFC0EFB1C10190C0CFB07F801
:1008900041EA0041884504FA02F422D969180CF1B2
:1008A000FF3004D2884502D9ACF102002944A1EB03
:1008B00008019BB2B1FBFEFC0EFB1C110CFB07F701
:1008C00043EA01439F420ED9EB180CF1FF3104D2E9
:1008D0009F4202D9ACF102012B44DB1B41EA0041EB
:1008E00092E76046E3E76146F7E76046A3E76346C1
:1008F000B7E7834206D916B9002108467BE7C6E967
:1009000000E0F9E7B3FA83F78FB9834201D3724568
:1009100008D8BEEB020460EB030301209C461EB91D
:10092000002168E73846FAE7C6E9004CF8E7C7F166
:10093000200CBB4022FA0CF41C432EFA0CF120FAD6
:100940000CF3B84001434FEA14490EFA07F5B3FB24
:10095000F9F81FFA84FE09FB18300B0C08FB0EFA9D
:1009600043EA00439A4502FA07F240D9E31808F136
:10097000FF3004D29A4502D9A8F102002344A3EB28
:100980000A0389B2B3FBF9F809FB183308FB0EFE22
:1009900041EA03418E452CD9611808F1FF3304D296
:1009A0008E4502D9A8F10203214443EA0040A0FB8E
:1009B0000298A1EB0E014145CE46434602D306D133
:1009C0004D4504D2B9EB020E68EB04030138002E4A
:1009D000A6D0B5EB0E0261EB030101FA0CFC22FA82
:1009E00007F34CEA0303F940C6E9003198E74046B3
:1009F000C5E74346D9E700002DE9F04F85B006462C
:100A00000F461546984683685B6802AA98470028F7
:100A10002FDB029CDDF80C90A5FB04AB05FB09BBAA
:100A200019A3D3E9002350465946FFF74DFE05466A
:100A30004FF0FF335345164B73EB0B031CD3A8FB4E
:100A400004A408FB094410A3D3E90023504621461F
:100A5000FFF73AFE03464FF0FF3252450C4AA241DF
:100A60000DD3BDF8382000922A463946304619F099
:100A7000E9FB05B0BDE8F08F6FF08500F9E76FF096
:100A80008500F6E7AFF3008000CA9A3B0000000043
:100A9000FFC99A3B000000002DE9F04F8DB009908E
:100AA0000D4617461FF036FA4B0143EAD063440166
:100AB000241A63EB01039B0043EA9473A4002418F7
:100AC00043EB0101C90041EA5471C4F3103444EA14
:100AD00041444FEAD139012D65D07D6829463C4813
:100AE000FFF70CFE28B129463A48FFF707FE002819
:100AF00061D135A3D3E9002320464946FFF794FD91
:100B000080460A9130A3D3E9002320464946FFF7E7
:100B10008BFD15461C46304A002328462146FFF728
:100B200083FD06460F462C4A002328462146FFF740
:100B30007BFD15461C464EF66022002328462146C2
:100B4000FFF772FD81460B914EF660220023284686
:100B50002146FFF769FD15461C464FF47A720023C3
:100B600028462146FFF760FD83468A464FF47A7295
:100B7000002328462146FFF757FDCDE90623CDF88F
:100B800010B0CDF814A0CDF808900B9A03920096FF
:100B9000019742460A9B114909981AF04BFF002021
:100BA0000DB0BDE8F08F22464B460D4909981AF06A
:100BB00041FF0020F4E72A460A4909981AF058FF35
:100BC0006FF00400ECE700BF005C260500000000A9
:100BD000643802006838020080EE36008C3802006B
:100BE000503802007438020030B589B00C9D0028DE
:100BF0003FD00446002949D0D0F8100110F0010F71
:100C000051D10020C4F8F800C4F8FC0004F580704D
:100C1000C4F80001C4F8040104F58470C4F80801A4
:100C2000C4F80C01002D4BD0287900284AD10120AE
:100C3000C4F810019FED267B8DED067B002004900B
:100C40000393029001900094234B204614F040F946
:100C500055B1296811B1204614F024F86B791BB105
:100C6000237B43F001032373204615F001FA09B0FA
:100C700030BD1A4C40F2DB2322461949194819F0BD
:100C8000C5FF40F2DB21204619F0B7FF134C4FF4AB
:100C9000377322461449134819F0B8FF4FF43771DF
:100CA000204619F0AAFF0D4C40F2DD2322460F49E1
:100CB0000C4819F0ABFF40F2DD21204619F09DFFF2
:100CC0000120B5E740F20110B2E700BFAFF30080AA
:100CD000FFFFFFFFFFFFFFFFC57D0100F48502005E
:100CE00080860200AC1B020088860200908602000B
:100CF0002DE9FF47804616460F46002900F0A280E6
:100D0000B1FA81F4341B002E04F10A04C0F2A2806F
:100D1000304619F053F90444304619F055F9A4EB64
:100D2000060905466946304619F076F9A9EB050330
:100D30007D336A46404639461FF076FBA64282461E
:100D40000D4600F38380B9F13F0F00F381804FF02F
:100D5000FF33A9F1200003FA00F003FA09F2C9F108
:100D60002001024323FA01F10A4303FA09F328EAB6
:100D7000030327EA020213430CBF01200020002DC9
:100D800000F08A80B5FA85F3E31A03F23E4340F29D
:100D9000FE72934200F38980002B23EAE376CCBFF6
:100DA00032460122121BA2F23341C1F1200CA2F201
:100DB0003447A2F253442AFA01F305FA0CFC43EA41
:100DC0000C0325FA04F4C7F1200EA2F2544C23437D
:100DD00005FA0EFE2AFA07F425FA0CFC44EA0E0482
:100DE00044EA0C0414F0010F25FA01F1C7F1200CBC
:100DF000A2F2544254D0A8B14FF0FF3000FA02F2F0
:100E000000FA07F4144320FA0CF2B84014432AEA1B
:100E1000000A03F0010225EA04054AEA020A5AEA36
:100E2000050A3DD0013341F10002C2F3130253EA37
:100E3000020138D0184642EA065141EC100B04B0CA
:100E4000BDE8F087B0FA80F420345BE7012096E734
:100E5000002094E7C6F10009484619F0B5F8241AB5
:100E6000484619F0B1F8A61B0546694648462E4487
:100E700019F046F906F17C036A46404639461FF0F0
:100E8000D3FA82460D464046394619F0ADF8814501
:100E90008CBF0020012072E7BAFA8AF3203373E78F
:100EA000C1F31302C6E70136C4E79FED010BC6E7A5
:100EB000000000000000F07F30B58DB02B4B1B68A8
:100EC00003F00703022B07D807AC294D0FCD0FC441
:100ED0002B682360002421E0264B02930020019020
:100EE000009003460322214919F087F9ECE70CAB87
:100EF00003EB840353F8143C03931F4B029300202D
:100F00000190009003460322184919F076F90DE08C
:100F10004FF48040002115F029F80134042C22D828
:100F2000124B1B6803F00703022BE0D80CAB03EB5A
:100F3000840353F8145C0121284601F02FFC00289B
:100F4000E6DA0A4B1B6813F0070FE1D00490039513
:100F50000A4B0293002001900090034601220349AE
:100F600019F04BF9D4E70DB030BD00BF7C0800206C
:100F7000E00F0200281302003C1302004813020095
:100F800010B584B00446304B1B6803F00703022BF6
:100F900028D82D4B1B6803F00703022B2DD8002106
:100FA0002A4801F041FC002832DB4FF47A7303FB3E
:100FB00004F0410CC00340F2E733C0184FF47A72DA
:100FC0004FF0000341F10001FFF77EFB14F0CEFF6C
:100FD00001F08CFC1C4B1B6803F00703022B28D884
:100FE00004B010BD1A4B02930020019000900346FC
:100FF0000322154919F001F9CBE7164B02930020A3
:1010000001900090034603220F4919F0F6F8C6E755
:101010000D4B1B6813F0070FE2D003900E4B0293A9
:1010200000200190009003460122074919F0E5F8DD
:10103000D6E70A4B0293002001900090034603225A
:10104000014919F0DAF8CBE77C08002061100000B4
:101050006013020078130200A8130200C4130200F8
:1010600010B588B00446374B1B6803F00703022B0A
:1010700013D8344B1B6803F00703022B19D83249ED
:101080002046FFF73BFB002830D12E4B1B6803F0B6
:101090000703022B20D808B010BD03902B4B0293FE
:1010A00000200190009003460322264919F0A5F87C
:1010B000DFE7238C628CA18CE08C06900591049272
:1010C0000393234B029300200190009003460322D8
:1010D0001C4919F092F8D2E71E4B02930190009040
:1010E00003460322174919F088F8D4E71A49204625
:1010F000FFF704FB78B9134B1B6803F00703022BBF
:10110000C9D9164B029301900090034603220D4962
:1011100019F073F8BFE712492046FFF7EFFA0028ED
:10112000B9D1084B1B6803F00703022BB3D90D4B51
:1011300002930190009003460322024919F05DF8E2
:10114000A9E700BF7C08002018140200DC1302008D
:10115000EC130200201402003814020040140200B4
:10116000541402005C14020030B5ADF2044D054683
:101170004FF48061684601F0E1FB041E09DB6A461A
:10118000064928461AF056FC002420460DF2044D6C
:1011900030BD034928461AF06BFCF6E70C2D02001F
:1011A0007414020038B50546012917D95468194945
:1011B0002046FFF7A3FAB8B117492046FFF79EFA79
:1011C000C8B9164A1649174801F014FA0446D4B9AA
:1011D000154928461AF02EFC204638BD13491AF04E
:1011E00047FC6FF01504F7E70C4A1149114801F06C
:1011F00001FA0446EBE722460F4928461AF038FC6C
:101200006FF01504E8E722460C4928461AF030FC36
:10121000E2E700BFA8140200BC140200B0140200F0
:10122000C414020030190200E01402008814020005
:10123000B4140200081A0200CC14020000150200C7
:101240002DE9F041A4B00546032940D994465468DD
:1012500096680DF18E030DF18F022849DCF80C0021
:1012600017F056F902283CD18322002102A81EF073
:10127000D2FF01238DF808309DF88F708DF88970AA
:101280009DF88E808DF88A803F2221460DF109005D
:101290001FF00DF83F2231460DF149001FF007F80D
:1012A000CDF80480009733462246154928461AF0A7
:1012B000C1FB02A801F014F9041E19DB11492846EC
:1012C0001AF0B8FB0024204624B0BDE8F0810E4996
:1012D0001AF0CEFB0D4928461AF0CAFB6FF0150430
:1012E000F1E70B4928461AF0C3FB6FF01504EAE753
:1012F0002246084928461AF0BBFBE4E780150200A5
:10130000B0150200E0150200141502005815020085
:101310008C150200CC15020070B50646012927D8AD
:101320000A242246184930461AF084FB0021174847
:1013300001F07AFA051E20DB4FF47A7304FB03F305
:10134000590CDB0340F2E73298184FF47A724FF0F1
:10135000000341F10001FFF7B7F914F007FE01F0B7
:10136000C5FA0B4930461AF065FB0025284670BDCA
:1013700050681EF058FF0446D3E72A460549304618
:101380001AF076FBF2E700BFF815020061100000CA
:10139000301602001816020070B50546012916D94C
:1013A0005668022919D80124234632461049284696
:1013B0001AF040FB2146304601F0F0F9041E11DB23
:1013C0000C4928461AF036FB0024204670BD0A4915
:1013D0001AF04EFB6FF01504F7E790681EF023FF3C
:1013E0000446E1E72246054928461AF041FBECE7AE
:1013F0006816020090160200441602007C160200D5
:1014000030B5ADF2144D804B1B6803F00703022B7F
:1014100069D87D4B1B6803F00703022B6ED87A4B0B
:101420001B6803F00703022B73D8774B1B6803F08C
:101430000703022B78D8744B1B6803F00703022BB9
:101440007DD801F009F8041EC0F2848001F0E8FBA9
:10145000041EC0F294806C4B1B6803F00703022B40
:1014600000F29E80694A6A496A4801F0C3F8041E86
:10147000C0F2A1804FF4806104A801F05FFA624BD2
:101480001B6803F00703022B00F2A6804FF48030A4
:10149000002114F06BFD5C4B1B6803F00703022B6B
:1014A00000F2A780FFF708FD4FF4803400252046A6
:1014B000294614F05BFD1E20FFF762FD20462946F9
:1014C00014F054FD504B1B6803F00703022BE2D9C4
:1014D000514B0293002001900090034603224A4999
:1014E00018F08BFED7E74D4B02930020019000903F
:1014F00003460322444918F080FE8AE7484B0293D2
:10150000002001900090034603223F4918F075FE29
:1015100085E7444B0293002001900090034603228C
:10152000394918F06AFE80E73F4B02930020019092
:10153000009003460322344918F05FFE7BE7374BE7
:101540000293002001900090034603222E4918F0D8
:1015500054FE76E72C4B1B6813F0070F03D120468F
:101560000DF2144D30BD0394304B029300200190D6
:10157000009003460122244918F03FFEEFE7224B7A
:101580001B6813F0070FEAD00394294B0293002045
:1015900001900090034601221B4918F02EFEDEE761
:1015A000244B029300200190009003460322164929
:1015B00018F023FE56E7144B1B6813F0070FCED02C
:1015C00003941D4B029300200190009003460122DA
:1015D0000D4918F012FEC2E704AB0393174B0293B8
:1015E00000200190009003460322074918F005FEF1
:1015F0004CE7134B02930020019000900346032216
:10160000014918F0FAFD4DE77C080020B0140200F3
:10161000B4140200081A0200C4170200A416020043
:10162000D0160200F01602000C1702002817020064
:10163000401702005C17020088170200A41702007E
:10164000A817020010B582B043681B6801248C40C3
:1016500023420AD001A918F0DFFD20B9019B1C42EA
:1016600014BF0120002002B010BD084C40F23363CB
:1016700022460749074819F0C9FA074819F0C6FA7F
:1016800040F23361204619F0B8FA00BF381B02005F
:101690006C1B0200AC1B0200CC1B0200254B5B7BC9
:1016A0001BB110B1244B984200D0704730B583B0C5
:1016B0001CF00BFCC20E43011B1A62F10002520225
:1016C00042EAD3525B021B1842F100018C0144EA4A
:1016D00093649A01D31A64EB01021C1842F10003CF
:1016E000E40B44EA43440C211348FFF7ABFF051E0B
:1016F0001BDB104B9B6893B1A34218D8E31A591E09
:101700000E4A91420BD800930A4A137B83F00103DF
:101710008DF80430136813B1516868469847054B3B
:101720009C60281E18BF0120187303B030BDE31A57
:10173000E5E700BF481B0020A80A02009E860100C2
:10174000F8B586684768046912F0FC6F33D1134618
:1017500002F03002302A3ED0504A1A40504DAA4280
:1017600049D003F00602042A55D013F4402202D0D7
:1017700013F4003F5CD0B2F5402F69D013F4801F02
:1017800005D022B113F0010F01D083F4402323F4DC
:1017900080123D684FF0010C0CFA01FC15EA0C0FA9
:1017A00066D013F0010F73D023684CEA0303236063
:1017B00033689847F8BD3B4C40F2DE3322463A4945
:1017C0003A4819F023FA3A4819F020FA40F2DE318B
:1017D000204619F012FA334C40F2E13322463549E3
:1017E000324819F013FA344819F010FA40F2E13196
:1017F000204619F002FA2B4C40F2E53322462F49DD
:101800002A4819F003FA2E4819F000FA40F2E5319F
:10181000204619F0F2F9234C4FF47A7322462949F5
:10182000224819F0F3F94FF47A71204619F0E5F9DE
:101830001C4C40F2EB33224623491C4819F0E6F9D0
:10184000224819F0E3F940F2EB31204619F0D5F9BE
:10185000144C40F2EF3322461D49144819F0D6F9D2
:101860001C4819F0D3F940F2EF31204619F0C5F9C0
:101870000C4C40F2FB33224617490C4819F0C6F9CC
:10188000164819F0C3F940F2FB31204619F0B5F9BA
:10189000236823EA0C0323608AE700BF02000300E9
:1018A00002000100381B0200E01B0200AC1B02001A
:1018B000401C0200641C0200A01C0200E01C02008C
:1018C000281D0200781D0200AC1D0200F41D02005C
:1018D000301E0200741E02006C1B0200CC1B0200B2
:1018E00070B58368456806699C69002C72D002F463
:1018F000C003B3F5C00F1DD063B302F0E863B3F1CA
:10190000C86F37D002F0C863B3F5800F42D02D689E
:1019100001238B401D424DD012F4000F04D03568D6
:101920002B4201D082F0C0622C4B134002F0B07207
:10193000A04770BD2A4C40F27A33224629492A48F2
:1019400019F064F9294819F061F940F27A3120461A
:1019500019F053F9224C40F27E33224624492248A2
:1019600019F054F9234819F051F940F27E3120461C
:1019700019F043F91A4C40F2813322461E491A48A5
:1019800019F044F91D4819F041F940F2813120461F
:1019900019F033F9124C4FF4627322461849124879
:1019A00019F034F9174819F031F94FF462712046F3
:1019B00019F023F90A4C40F29233224612490A48A0
:1019C00019F024F9114819F021F940F2923120461A
:1019D00019F013F96FF05700ABE700BF40000006A5
:1019E000381B0200A01E0200AC1B0200E41E020015
:1019F000101F02003C1F0200681F0200EC1F0200C3
:101A0000402002008C2002006C1B0200CC1B020054
:101A100010B586B0604B1B6803F00703022B37D864
:101A20005E481EF07AF800283DD05D481EF075F83B
:101A300000284AD05B4A0C215948FFF781FE041E5A
:101A400055DB4FF400120C215548FFF749FF041EE7
:101A500063DB5549554B4B604FF480538B605048C6
:101A600018F0E6FB041E69DB514B00211960596038
:101A70009960D9600A464F4818F0F3FB00286EDBE6
:101A8000454B1B6803F00703022B79D8002433E091
:101A9000494B0293002001900090034603223E49E7
:101AA00018F0ECFBBCE73C4B1B6813F0070F02D1AE
:101AB0006FF0120420E0414B029301900090034626
:101AC0000122354918F0DAFBF2E7334B1B6813F0BB
:101AD000070F02D16FF012040EE0394B0293019010
:101AE0000090034601222C4918F0C8FBF2E72A4B6C
:101AF0001B6813F0070F02D1204606B010BD0494F6
:101B00000C2303932F4B0293002001900090034677
:101B10000122214918F0B2FBEEE71F4B1B6813F0BE
:101B2000070FE9D00394284B029300200190009006
:101B300003460122184918F0A1FBDDE7164B1B688C
:101B400013F0070FD8D00394204B0293002001908C
:101B5000009003460122104918F090FBCCE70E4B91
:101B60001B6813F0060F8BD00390194B02930020D3
:101B70000190009003460222074918F07FFB7FE79F
:101B8000144B02930024019400942346032202493B
:101B9000204618F073FBAFE780080020200B0200FE
:101BA000A80A020010000100581B00209D1600002A
:101BB000481B002018220200D4200200EC20020062
:101BC000042102001C2102004021020064210200C5
:101BD00080210200A421020010B584B01149B1FB9C
:101BE000F0F101EB4112104BA3FB023252090F48F6
:101BF00018F037FB041E03DB0024204604B010BDA0
:101C00000B4B1B6813F0070FF7D00394094B02939B
:101C100000200190009003460122054918F02EFB98
:101C2000EBE700BF00CA9A3B1F85EB511822020068
:101C300080080020C421020008B500221146024895
:101C400018F00FFB002008BD1822020038B504462A
:101C50000D4629B120461DF05AFF3DB1002038BD88
:101C600000221146054818F0FCFAF3E742F2EB12A5
:101C700046F2CB61014818F0F4FAEFE718220200AF
:101C800010B584B0002836D01C4B18605960002273
:101C90009A601A7301225A734FF0E8620C211848B7
:101CA000FFF71EFE041E09DB164B1B6803F007033B
:101CB000022B14D80024204604B010BD114B1B6821
:101CC00013F0070FF7D003940F4B029300200190FD
:101CD0000090034601220B4918F0D0FAEBE70B4BBA
:101CE00002930024019400942346032205492046D0
:101CF00018F0C4FADFE76FF01504DCE7481B00209A
:101D0000A80A020080080020DC2102000022020054
:101D100000B585B00E4B00225A734FF400120C210F
:101D20000C48FFF7DDFD0C4B1B6803F00703022B8B
:101D300003D8002005B05DF804FB084B0293002097
:101D40000190009003460322034918F097FAF0E748
:101D5000481B0020A80A0200800800200C22020074
:101D600010B506E003F1200E10E0E64518D1013071
:101D700001310378BBB10A78AAB19E46144C14F81D
:101D800003C00CF0030CBCF1010FEBD09446104BD8
:101D90009B5C03F00303012BE7D102F1200CE4E785
:101DA000AEEB0C000EE01846094AD25C02F00302CA
:101DB000012A08D00A78064B9B5C03F00303012B31
:101DC00004D0801A10BD03F12000F3E72032F8E7B9
:101DD000F58702000A4679B101EB81039B000A49AD
:101DE000A1FB03135909A2EB5313834208D80A44F9
:101DF000824207D200207047B0FA80F04009704755
:101E000000207047012070471F85EB51F0B58FB05F
:101E100006460C462C211EF01AFA60B30746851BB5
:101E20001F2D00D91F252A46314606A81EF03FFA6D
:101E300005F138030DEB0305002305F8203C02AB48
:101E4000019303AB009304AB05AA0E49781C16F06E
:101E50005FFB042812D11F2206A920461EF027FA94
:101E6000059B2384049B6384039BA384029BE384DC
:101E700000200FB0F0BD6FF01500FAE76FF015000D
:101E8000F7E700BF302202000023052B0DD803EB3B
:101E90004302120106498A5C824201D00133F4E711
:101EA00003EB430301EB031070470020704700BFB2
:101EB000C8220200002800F0958070B5C4B00D461D
:101EC0000446002900F091808822002128461EF057
:101ED000A2F900E001342378002B66D00A3BDBB284
:101EE000162B64D8424A22FA03F313F0010FF1D102
:101EF00000262378002B5CD0002203E0013404A8E4
:101F00008354013223782BB10A2B03D00D2B01D03F
:101F1000FE2AF3D904AB0021995400E00134237860
:101F20001BB10A2BFAD00D2BF8D0002AE1D09DF876
:101F30001030232BDDD0D5F88430B3420BD3EEB173
:101F4000760006EB8601C900D5F8800008F046F956
:101F5000B0B1C5F88000D5F88010D5F8843003EB17
:101F6000830301EBC30104A8FFF750FF0028C0D191
:101F7000D5F884300133C5F88430BAE71026E0E79D
:101F80001C4B1B6813F0070F05D1284618F094F975
:101F90006FF00B0014E0184B029301900090034681
:101FA0000122144918F079F9EFE70026A1E700268D
:101FB0009FE7104B1B6803F00703022B02D8002099
:101FC00044B070BDD5F8843003930C4B02930024C9
:101FD00001940094234603220649204618F05DF937
:101FE0002046EDE76FF0150070476FF01500E7E74A
:101FF00009004000940800203C2202005822020000
:10200000002800F0EA802DE9F04F85B00C46934699
:102010001E460546002900F0E380002A00F0E38018
:10202000B0F820805FFA88F0FFF72EFF0246002804
:1020300054D0D0F81080B8F1000F08D0012E40F233
:10204000D580C4F80080436963604FF0020892F8BD
:102050002C30002B56D0698C01209840013801406B
:102060004FF0000C994692F82D30C3B1A3F1200037
:10207000C3F1200E0CFA03FC01FA00F04CEA000C4C
:1020800021FA0EFE9940B5F824A0012098400138AD
:102090000AEA000A41EA0A014CEA0E0C994492F855
:1020A0002E00A0F12003C0F1200A0CFA00FC01FA76
:1020B00003F34CEA030C21FA0AFA8140B5F826E052
:1020C00001238340013B0EEA030319434CEA0A0C47
:1020D00048442B8C012B1AD0013842E0484B1B6836
:1020E00013F0070F02D16FF0850073E0CDF80C807C
:1020F000444B02930190009003460122404918F09E
:10210000CCF8F0E74FF000094946CC46ABE74FEA80
:102110000C2C4CEA116C6FEA0E0E5FFA8EFE4EEA42
:1021200001210830D8E747B108F10109D36944F823
:102130002830936944F8293011E008F101099369C6
:1021400044F82830D36944F8293008E093695B08E3
:1021500008F1010944F82830D36944F829300138DE
:10216000F04600282ADB08F1020EB64541D8C0F13E
:10217000200AA0F1200921FA00F30CFA0AFA43EA36
:102180000A032CFA09F943EA090303F001072B8C2F
:10219000042BC8D00F3B9BB2022B03D8002FD5D005
:1021A0009369D5E708F1010A936944F828301FB113
:1021B000136A44F82A30D2E7D369FAE7536A33B195
:1021C00008F10102B24217D844F828309046CBF803
:1021D0000080002005B0BDE8F08F6FF0150070475B
:1021E0006FF01500F6E76FF01500F3E76FF00B00E6
:1021F000F0E76FF00B00EDE76FF00B00EAE700BFD0
:10220000940800207022020010B584B09DF81C4094
:1022100002949DF81840019400931346024A16F068
:102220004BF904B010BD00BFE8230200F0B5CDB0FB
:10223000002866D00E460746002965D00023499342
:102240004A938DF82C31012249A808F061FB041E45
:1022500034DB07A9304608F099FE041E43DB48989A
:1022600001301DF083FF0546002840D0489A014602
:1022700049A808F04FFC044649A808F021FC002CAE
:102280003BDB00232B5539462846FFF713FE044657
:1022900028461DF062FFB4B91D4B1B6803F007030D
:1022A000022B10D903961B4B029300200190009043
:1022B00003460322164918F053F904E0144B1B6837
:1022C00013F0070F02D120464DB0F0BD04940396E1
:1022D000114B0293002001900090034601220C490B
:1022E00018F03EF9EFE749A808F0EAFBEBE749A848
:1022F00008F0E6FB6FF00B04E5E728461DF02DFF24
:10230000E1E76FF01504DEE76FF01504DBE700BFCF
:102310009008002014240200F82302000C4B1B68D4
:1023200013F0070F02D16FF08500704700B585B03C
:10233000084B0293002001900090034601220449BB
:1023400018F00EF96FF0850005B05DF804FB00BFD2
:102350009008002030240200274BD3F89828002A48
:1023600049D0D3F89030002B45D000B593B0234925
:1023700008ABA1F1980017F0CCFF60BB204B1B68A5
:1023800003F00703022B0DD81B4BD3F89020D3F892
:10239000941008A89047184B0022C3F8982813B04F
:1023A0005DF804FBBDF84030BDF84220BDF8441094
:1023B000BDF84600079006910592049308AB03937D
:1023C000104B0293002001900090034603220C4919
:1023D00018F0E4F8D8E70A4B1B6813F0060FDAD0C0
:1023E000094B029300200190009003460222044909
:1023F00018F0D4F8CFE7704798090020300A002081
:102400008C0800205C2402007C240200104B93F80E
:10241000D838E3B100B583B00D4BD3F89838B3F595
:10242000007F07D20A4A591CC2F89818016826335F
:1024300042F8231000220023CDE9002341F2343278
:102440000023044814F054FE03B05DF804FB704709
:10245000980900203812002010B584B04FF40E62A5
:10246000002119481DF0D7FEFFF7D2FA041E0EDB3B
:102470000022164916481DF0BCFD164B1B6803F0E0
:102480000703022B14D80024204604B010BD114BC2
:102490001B6813F0070FF7D003940F4B0293002033
:1024A00001900090034601220A4918F077F8EBE703
:1024B0000A4B029300240194009423460322054909
:1024C000204618F06BF8DFE7980900205923000038
:1024D000381200208C08002094240200A824020056
:1024E0002DE9F041A8B0002879D004463D4B93F87F
:1024F000883063B92378012B11D0022B26D03A4BB8
:102500001B6813F0070F2ED16FF085051AE0354DCB
:10251000284617F0D1FE002385F88830EAE794F8C2
:10252000813094F882200192009304F14103621CEF
:10253000802108A8FFF768FE08A92A48FFF776FE61
:102540000546EDB1284628B0BDE8F08194F8823008
:10255000009394F8813004F14102611C2148FFF797
:10256000DDFE0546EDE7214B02930020019000902F
:10257000034601221C4918F011F86FF08505E1E7C8
:10258000671C184E3F22394630461DF090FE04F17C
:1025900041083F22414606F140001DF088FE01231C
:1025A00086F88830104B1B6803F00703022BC9D94B
:1025B00094F8813094F88220D6F88410079106921E
:1025C0000593CDF810800397094B029300200190EA
:1025D000009003460322044917F0E0FFB2E76FF0D2
:1025E0001505AFE7980900208C080020C0240200E0
:1025F000D8240200F0B585B000283CD00D46144622
:1026000006461E4B93F88830F3B931461B4817F045
:10261000B6FF0646A8B925B13F22294617481DF046
:1026200046FE24B13F22214615481DF040FE134BC3
:10263000012283F88820134B1B6803F00703022B49
:102640000AD8304605B0F0BD0C4F384617F034FEBE
:10265000002387F88830D8E7084BD3F884300393F9
:10266000094B029300200190009003460322054984
:1026700017F094FFE5E76FF01506E2E798090020F0
:10268000D80900208C080020042502002DE9F04123
:10269000ADF5026D002875D00E46804690F82000FA
:1026A000FFF7F2FB074678B14FF4007307AA08A9B9
:1026B0004046FFF7A5FC041E1BDBB868FFF78CFA49
:1026C000041E4BDB002539E0304B1B6813F0070F6D
:1026D00002D16FF0850441E0B8F8203003932C4B11
:1026E00002930190009003460122284917F056FFFB
:1026F000EFE7264B1B6813F0070F2FD00394254BF1
:102700000293002001900090034601221F4917F018
:1027100045FF23E014F0010F0CBF0121002108AB9D
:1027200053F82400FFF792FA0134079BA342F1D833
:10273000731EAB4201D9B86A20B90135AE4204D943
:102740000024F2E713F058FCF7E7FFF775FA0F4B98
:102750001B6803F00703022B05D8002420460DF563
:10276000026DBDE8F0810496CDF80C800A4B02930F
:10277000002401940094234603220449204617F0C4
:102780000DFFEBE76FF01504E8E700BF8C080020B1
:10279000702202002C25020040250200002837D0BC
:1027A00030B585B00C4605461B4B93F888304BB1CD
:1027B0000146194817F08FFDB8B12146FFF766FFB3
:1027C00005B030BD154B1B6813F0070F02D16FF039
:1027D0001500F5E7124B029300200190009003468C
:1027E00001220E4917F0DAFEF1E70C4B1B6813F0DB
:1027F000070F02D16FF00100E2E70395094B029346
:102800000190009003460122044917F0C7FEF1E74A
:102810006FF01500704700BF980900208C08002059
:10282000582502006C25020010B584B000284DD058
:10283000284B93F88830CBB1264BC3F89000C3F8EF
:1028400094100021C3F89818012283F8D828224850
:10285000FFF716FA041E1CDB204B1B6803F007036E
:10286000022B27D80024204604B010BD1B4B1B6848
:1028700013F0070F02D16FF01504F4E7184B029321
:1028800000200190009003460122144917F086FEB3
:10289000F1E7124B1B6813F0070FE4D00394114BC0
:1028A0000293002001900090034601220B4917F08B
:1028B00075FED8E70C4B0293002401940094234644
:1028C00003220649204617F069FECCE76FF0150495
:1028D000C9E700BF980900200D2400008C080020E3
:1028E00058250200A81302008425020000B585B017
:1028F0000F48002380F8D83800F50A601DF085FBEA
:10290000FFF706FA0B4B1B6803F00703022B03D8F3
:10291000002005B05DF804FB074B029300200190F6
:10292000009003460322034917F038FEF0E700BF8A
:10293000980900208C0800209825020000283ED02D
:10294000F0B585B00E46074600293BD0224B93F8E0
:102950008830002B39D0204D05F1400300932B46E1
:102960001E4A15F0A9FD0446D5F884301C4A311AD8
:10297000381815F0A1FD0444002517E0164BD3F8D4
:10298000803005EB850203EBC2031A8C598C988CBE
:10299000B3F826C0CDF80CC0029001910092114A04
:1029A000311B381915F088FD044401350A4BD3F862
:1029B0008430AB420CD9B442E0D3002009E06FF080
:1029C000150070476FF0150003E06FF0150000E090
:1029D000002005B0F0BD00BF98090020AC25020022
:1029E000BC250200D0250200184B93F8B0305BB331
:1029F000164BD3F8B4203AB310B584B0144B1B680F
:102A000003F00703022B13D8104CD4F8B430A3847E
:102A1000012384F83030002384F8B030FFF778F9D0
:102A2000636B1BB12146A26B0320984704B010BD15
:102A30000392084B0293002001900090034603226A
:102A4000034917F0BAFDDFE7704700BF7812002096
:102A500088080020F8250200124B93F8B030FBB133
:102A600010B584B0104B1B6813F0060F0DD10D4C40
:102A7000002384F8B030FFF74BF9636B1BB1A26BF6
:102A800000210420984704B010BD084B0293002099
:102A90000190009003460222034917F08EFDE6E7FD
:102AA000704700BF78120020880800201C26020012
:102AB00010B584B000284ED00446524B93F8B03085
:102AC000002B46D00368312B43D94E4B1B6A002B99
:102AD00050D04C4BD3F8B43053BB4B4B1B6803F076
:102AE0000703022B64D81BF0F0F9C20E43011B1A36
:102AF00062F10002520242EAD3525B021B1842F119
:102B000000014FEA811C4CEA936C9A01D31A6CEBDA
:102B1000010C1B184CF1000CDB0B43EA4C43394A07
:102B2000C2F8B830536B1BB1926B0021022098475A
:102B3000344BD3F8B430B3F5007F50D3324A126827
:102B400012F0070F3FD131481DF05FFA0020FFF768
:102B50004BFF04B010BD2C4B1B6813F0070FF8D0CF
:102B60002B4B02930190009003460122264917F057
:102B700024FDEEE7244B1B6813F0070F0DD1214C09
:102B8000002384F8B030FFF7C3F8636B002BE0D06C
:102B9000A26B002105209847DBE71E4B0293002023
:102BA0000190009003460122174917F006FDE6E761
:102BB000194B029300200190009003460322124912
:102BC00017F0FBFC8FE70393144B02930020019056
:102BD0000090034601220C4917F0EFFCB3E70948C7
:102BE000026A591CC0F8B410216842F82310002270
:102BF0000023CDE9002341F234320023783014F071
:102C000077FAA6E77812002088080020F01200204A
:102C1000302602004026020074260200942602009C
:102C200010B586B0364CC022002120461DF0F3FAC4
:102C30000022344904F140001DF0DBF90022324942
:102C400004F178001DF0D5F94FF400601DF08EFA04
:102C50002062C8B14FF4006200211DF0DCFA0023AD
:102C600004930593294904A807F07CFF00281DDB85
:102C700004A808F093F8264B1B6803F00703022B07
:102C80002DD8002006B010BD214B1B6813F0070F94
:102C900002D16FF00B00F5E71E4B029301900090FC
:102CA000034601221A4917F088FCF2E7174808F09A
:102CB000A1F80028DFDA10F1110FDCD0144B1B68EB
:102CC00013F0060FD7D00390134B0293002001900E
:102CD0000090034602220E4917F06FFCCBE7084B29
:102CE0001B6A03930D4B0293002401940094234626
:102CF00003220749204617F060FC2046C2E700BFC8
:102D000078120020592A0000E9290000E02602007C
:102D100088080020BC260200F026020018270200C6
:102D20002DE9F04387B01C46564B93F8B030002B8A
:102D300066D105460E461746524BD3F82080B8F1AF
:102D4000000F70D0DFF83C913422002148461DF07E
:102D500062FAC9F820804FF40062002140461DF05D
:102D60005AFA0023C9F8B43025B11F222946484633
:102D70001DF09DFA434B5E639F63012283F8B020F0
:102D800000214148FEF77CFFB0F100085EDB0CB982
:102D900041F28834610CE30340F2E73298184FF4B3
:102DA0007A724FF0000341F10001FDF78DFC0246FD
:102DB0000B4600200021CDE90001344814F098F9B9
:102DC000334B1B6803F00703022B0DD9002D54D0A1
:102DD000049403952F4B029300200190009003462A
:102DE00003222B4917F0E9FB002E48D03A46002178
:102DF0000120B0474FF00008404607B0BDE8F0831F
:102E0000234B1B6813F0070F02D16FF00F08F3E795
:102E1000214B0293002001900090034601221C499F
:102E200017F0CBFBF1E71A4B1B6813F0070F02D129
:102E30006FF01508E0E7194B029300200190009015
:102E400003460122124917F0B8FBF1E7104B1B684B
:102E500013F0070F04D10B4B002283F8B020CBE70F
:102E6000CDF80C800E4B0293002001900090034699
:102E70000122074917F0A1FBEDE70A4DA8E74FF043
:102E80000008B9E778120020B12A0000B81200202B
:102E900088080020BC2702004C2702006C27020093
:102EA000A427020040270200F0B587B0A0B10F466A
:102EB000054690F830307BB1324B1B6803F00703B6
:102EC000022B1CD8A86A08B949F27040FEF784FEAC
:102ED000002847DB002634E02A4B1B6813F0070F5D
:102EE00002D16FF015003DE0274B029300200190C6
:102EF000009003460122234917F05FFBF1E7838C22
:102F0000059104930390214B0293002001900090BF
:102F1000034603221B4917F050FBD3E714F0010FBF
:102F20002B6A0CBF0121002153F82400FEF78EFE0E
:102F30000134A4B2AB8CA342F0D87B1EB34204D8B8
:102F40000136BE4205D20024F4E7114813F054F8CC
:102F5000F6E7FEF771FE0B4B1B6803F00703022B2D
:102F600002D8002007B0F0BD0A4B02930024019460
:102F70000094234603220349204617F01EFB2046F7
:102F8000F0E700BF88080020E4270200F4270200D1
:102F9000E0A501002428020070B5A8B0002870D078
:102FA0000E46054600296FD00091394B394A8021E1
:102FB00008A815F081FA0023059306938DF81C30BC
:102FC000012208A905A807F0A3FC041E2EDB20227D
:102FD000294605A807F09EFD022205F1240105A857
:102FE00007F098FD042205F1280105A807F092FDDD
:102FF000042205F12C0105A807F08CFD2B6A33B3E0
:10300000AA8C9200296A05A807F084FD05A807F09C
:1030100057FD012385F830301F4B1B6803F0070371
:10302000022B21D80024204628B070BD1A4B1B6803
:1030300013F0070FF7D00394184B02930020019070
:10304000009003460122144917F0B7FAEBE74FF45A
:1030500000601DF08BF828620028D1D105A807F088
:103060002FFD6FF00B04DEE703960D4B0293002457
:1030700001940094234603220749204617F09DFA45
:10308000D1E76FF01504CEE76FF01504CBE700BF72
:10309000E0260200382802008808002044280200A8
:1030A0007828020030B5A5B0002834D0054600903D
:1030B0001A4B1B4A802104A815F0FEF904A807F05A
:1030C000FFFE041E09DB174B1B6803F00703022BEE
:1030D00014D80024204625B030BD124B1B6813F0D5
:1030E000070FF7D00394104B02930020019000903B
:1030F000034601220B4917F060FAEBE703950B4BEF
:10310000029300240194009423460322054920469B
:1031100017F053FADEE76FF01504DBE7E026020054
:1031200038280200880800208C280200A428020009
:10313000002835D070B5C4B00C4605460023429334
:103140004393194942A807F00DFD002826DB174AD2
:103150002146284615F0B0F90646694642A807F010
:1031600091FDB8B99DF80130A3B19DF80030002B56
:10317000F3D12E210DF101001DF0B5F808B10022A8
:1031800002700DF101030A4AA11BA81915F094F968
:103190000644E2E742A807F001FE002044B070BDFB
:1031A0006FF01500704700BFE0260200B82802004B
:1031B000CC280200002835D02DE9F04182B08846A5
:1031C0001646074690F830307BB389B303461C4A55
:1031D0003146404615F070F90446BB6A0093BB8C3B
:1031E000184A311A404415F067F90444164A311B55
:1031F00008EB040015F060F9051900240BE03B6AA8
:1032000053F82430114A711B08EB050015F054F9EE
:1032100005440134A4B2BB8CA3420CD9B542EED311
:10322000002009E06FF0150070476FF0150003E013
:103230006FF0150000E0002002B0BDE8F08100BF93
:10324000D4280200E82802000829020020290200F0
:10325000002800F095802DE9F04186B00C468646A6
:1032600090F83030002B00F08E80002900F08E8026
:10327000002121606160A160E160216161614FF026
:10328000FF33A360838C23618C460D460A460F46AC
:103290000E460846884608E0DB191F4646F1000640
:1032A00001350CF1010C1FFA8CFCBEF8243063458B
:1032B00014D9DEF8203053F82C30A168994200D997
:1032C000A360E168994200D2E3601CF0010FE3D1F2
:1032D0001B18184648F100080132E2E722B100232A
:1032E0004146FDF7F1F9206035B12A460023384602
:1032F0003146FDF7E9F96060A36873B15B00254AC8
:10330000B2FBF3F36361A3F50842B93A41F26E717F
:103310008A420CD849F2704363611F4B1B6803F06B
:103320000703022B19D8002006B0BDE8F081A3F5F1
:103330000042E93A40F69E718A4203D848F6A0431B
:103340006361EAE7A3F51443713B40F69E72934232
:10335000E3D849F640436361DFE763690593636837
:103360000493236803930D4B02930024019400946B
:10337000234603220849204617F01FF92046D3E7C9
:103380006FF0150070476FF01500CDE76FF0150076
:10339000CAE700BF40420F0088080020242902002D
:1033A00010B58AB005280DD8DFE810F00600190026
:1033B0003B004C00E700F800814B1B6803F007035B
:1033C000022B01D80AB010BD7E4B02930020019061
:1033D0000090034603227A4917F047F9F2E7784B49
:1033E0001B6803F00703022B10D8754B1B6803F012
:1033F0000703022BE6D9744B029300200190009042
:10340000034603226E4917F030F9DBE76F4B029356
:1034100000200190009003460322694917F025F926
:10342000E3E7674B1B6803F00703022BCAD9684B1D
:10343000029300200190009003460322604917F098
:1034400014F9BFE70C460029BCD05D4B1B6803F0A4
:103450000703022B3CD85A4B1B6803F00703022BCF
:1034600041D8574B1B6803F00703022B47D8544B36
:103470001B6803F00703022B4ED804A92046FFF770
:10348000E7FE00289ED14E4B1B6803F00703022B7A
:103490004FD84B4B1B6803F00703022B53D8484B04
:1034A0001B6803F00703022B5AD8454B1B6803F037
:1034B0000703022B86D9099B0393464B02930020F6
:1034C00001900090034603223D4917F0CEF879E7BA
:1034D000414B02930020019000900346032238499B
:1034E00017F0C3F8B7E703943C4B02930020019018
:1034F000009003460322324917F0B7F8B1E7A38CD6
:103500000393374B0293002001900090034603225F
:103510002B4917F0AAF8AAE7E36A0393314B029309
:1035200000200190009003460322254917F09DF8E2
:10353000A3E72D4B029301900090034603222049FC
:1035400017F093F8A5E7049B0393284B0293002000
:103550000190009003460322194917F086F89EE770
:10356000059B0393224B0293002001900090034699
:103570000322134917F079F897E7114B1B6813F0F2
:10358000060F3FF41FAF1B4B0293002001900090E9
:10359000034602220A4917F068F813E7084B1B6834
:1035A00013F0070F3FF40EAF134B0293002001906E
:1035B000009003460122024917F057F802E700BFC6
:1035C000840800206029020090290200702902006E
:1035D000C02902005C2A0200E0290200F82902004A
:1035E000042A0200102A0200242A0200302A0200C3
:1035F000442A0200782A0200A02A020030B58FB0C7
:10360000054601292CD954683422002101A81CF058
:1036100002FE4FF400601CF0A9FD099030B3214672
:1036200001A8FFF7B9FC041E27DB4FF400501CF083
:103630009DFD044668B14FF40052014601A8FFF712
:10364000B9FD22461149284618F0F4F920461CF02D
:1036500084FD09981CF081FD002420460FB030BD88
:103660000B4918F005FA6FF01504F6E709492846EA
:1036700018F0FEF96FF00B04EFE7224606492846E2
:1036800018F0F6F909981CF068FDE6E70C2D020029
:10369000BC2A0200DC2A0200F82A020070B594B0AD
:1036A000054601291DD956683422002107A81CF0BF
:1036B000B2FD4FF400601CF059FD0F90B8B13146D7
:1036C00007A8FFF769FC041E18DB01A907A8FFF78C
:1036D000BFFD0446D8B10F981CF03FFD204614B042
:1036E00070BD1D4918F0C4F96FF01504F6E71B49C9
:1036F000284618F0BDF96FF00B04EFE72246184991
:10370000284618F0B5F90F981CF027FDE6E7324679
:103710001449284618F08EF9059A1349284618F0DE
:1037200089F9019A1149284618F084F9029A10493A
:10373000284618F07FF9039A0E49284618F07AF9BE
:10374000049A0D49284618F075F9069A0B4928463F
:1037500018F070F9BFE700BF142B0200DC2A02004A
:10376000F82A0200342B02004C2B0200602B0200CE
:10377000742B0200882B02009C2B0200B02B02004D
:1037800070B59CB00546022936D914463426324617
:1037900000210FA81CF03FFD3246002102A81CF0BA
:1037A0003AFD4FF400601CF0E1FC17904FF400600C
:1037B0001CF0DCFC0A90179B23B318B361680FA8B8
:1037C000FFF7EAFB0646A16802A8FFF7E5FB002E1B
:1037D00027DB002825DB0DF1070202A90FA816F050
:1037E000FBFE064650B317981CF0B7FC0A981CF075
:1037F000B4FC30461CB070BD244918F039F96FF0A4
:103800001506F6E72249284618F032F9179808B14C
:103810001CF0A3FC0A9808B11CF09FFC6FF00B068B
:10382000E7E71C49284618F023F917981CF095FC87
:103830000A981CF092FC6FF01506DAE7A36862683C
:103840001549284618F0F6F89DF807201349284630
:1038500018F0F0F89DF807305A2B08D8462B0BD8F3
:10386000322B0ED90E49284618F0E4F8BBE70D4973
:10387000284618F0DFF8B6E70B49284618F0DAF8C2
:10388000B1E70A49284618F0D5F8ACE7CC2B02007E
:10389000DC2A0200F02B0200082C0200202C02007F
:1038A0007C2C0200342C02005C2C0200A42C0200B0
:1038B00070B5054601290DD956683046FFF7F2FB71
:1038C000041E0DDB32460949284618F0B3F80024DF
:1038D000204670BD064918F0CBF86FF01504F7E7E5
:1038E00022460449284618F0C3F8F1E7FC2C0200F0
:1038F000C42C0200E42C020030B5ADF2044D0546A4
:103900004FF480616846FFF713FC041E09DB6A462A
:103910000749284618F08EF8002420460DF2044D81
:1039200030BD22460349284618F0A2F8F5E700BF4B
:103930000C2D0200102D020070B50446012921D97A
:103940005668022924D841F288351749204618F0D4
:1039500071F832461549204618F06CF82A46144989
:10396000204618F067F81349204618F063F82B46F4
:10397000224611493046FFF7D3F9051E0DDB00251D
:10398000284670BD0D4918F073F86FF01505F7E77C
:1039900090681CF048FC0546D7E72A4608492046AF
:1039A00018F066F8ECE700BF582D0200742D0200F5
:1039B000882D0200982D0200A13300002C2D02005A
:1039C000C82D0200F0B58FB0054601292CD95668E4
:1039D00002292FD801273422002101A81CF01BFC4A
:1039E0004FF400601CF0C2FB099040B3314601A8BF
:1039F000FFF7D2FA041E29DB3B4632461B49284614
:103A000018F018F8394601A8FFF74EFA044609984D
:103A10001CF0A3FB002C22DB1549284618F00AF8FD
:103A2000002420460FB0F0BD124918F021F86FF0C5
:103A30001504F6E790681CF0F6FB0746CBE70E4945
:103A4000284618F015F86FF00B04EAE722460B49F8
:103A5000284618F00DF809981CF07FFBE1E7224694
:103A60000749284618F004F8DBE700BF102E0200D3
:103A7000402E0200E82D0200DC2A0200F82A020093
:103A80002C2E0200002947D070B50D46066830463E
:103A900016F021FF044606EBC003B268B2F5004FF2
:103AA00017D35B6813F0010F15D004EB5303B2F585
:103AB000004F1FD356F833209B1A9C421DD1002281
:103AC0002146304616F0E0FD2146304616F060FFF4
:103AD00070BD5B88E6E7114CAF23224610491148C0
:103AE00017F094F82946104817F090F8AF212046B7
:103AF00017F083F836F83320DEE7084CB723224668
:103B00000A49084817F082F82946094817F07EF854
:103B1000B721204617F071F8704700BF0830020047
:103B20002C300200AC1B0200403002007830020052
:103B3000A03002002DE9F843154606684B420B40C1
:103B400001F1FF3919EA01090CD0B268B2F5004F52
:103B500006D3082293425CD21A464C46994609E0A5
:103B60000422F7E70C46B368B3F5004F4AD30822A6
:103B7000944249D9631E23424ED1002D74D0B368BC
:103B8000B3EBD50F73D96119891AB3F5004F53D32D
:103B9000082319440731C908304616F054FF074678
:103BA000002867D00146304616F08AFD00EB090870
:103BB000A04408F1FF38B8FBF4F804FB08F8A8EBC0
:103BC000090808EB0504073424F007044146304691
:103BD00016F081FE0546A41BE41087422ED306EBA7
:103BE000C503B268B2F5004F32D35B6805EB5303EF
:103BF0009C422FD301222946304616F045FD40460F
:103C0000BDE8F8830422B3E7294616F06DFF80462D
:103C1000F5E74C469946ADE7184C4FF4A27322469F
:103C20001749184816F0F2FF174816F0EFFF4FF447
:103C3000A271204616F0E1FF0423AAE702463946A6
:103C4000304616F0D2FD3946304616F078FEC6E70B
:103C50005B88CBE722462946304616F0C6FD214652
:103C6000304616F06CFEC5E74FF00008C7E74FF08E
:103C70000008C4E74FF00008C1E700BF08300200A9
:103C8000DC300200AC1B0200F83002002DE9F04FDE
:103C900085B0064615461C46076800296AD0894645
:103CA000002B6DD002F1FF3B1BEA020F6CD1D7F85D
:103CB00008A0BAEBD30F40F2BD80384616F00BFED9
:103CC000804607EBC0030193BAF5004F6CD35B68E5
:103CD0005A08009208EB530302934146384616F007
:103CE000EFFCA9EB00030393E118BAF5004F5ED394
:103CF000082319440731C90815B119EA0B0F14D16B
:103D0000009B994200F0988053D3029B07EBC303BA
:103D10009B46BAF5004F5ED35B6813F0010F04D1E8
:103D2000009A02EB53038B4257D222462946304673
:103D3000FFF700FF0546C8B1BB68B3F5004F74D369
:103D4000019A52685208D200B3F5004F70D308238D
:103D5000D21A039BD21AA24228BF224649462846BD
:103D60001CF031FA49463046FFF78CFE284605B074
:103D7000BDE8F08F1A462946FFF7DCFE0546F5E759
:103D8000FFF780FE0025F1E72C4C40F28913224614
:103D90002B492C4816F03AFF2B4816F037FF40F21B
:103DA0008911204616F029FF019B5B8890E70423C8
:103DB0009FE708EB010422464146384616F015FD00
:103DC00001224146384616F05FFC2146384616F07F
:103DD000DFFD4D46CAE75B889FE78C1A029938469B
:103DE00016F084FDBB68B3F5004F10D3DBF8043048
:103DF000B4EB530F0ED3029A4146384616F038FD05
:103E000001224146384616F03FFC4D46AEE7BBF86E
:103E10000230EDE702990C442246384616F0E5FCE4
:103E20002146384616F08BFDE5E7019A528889E76E
:103E300004238DE7002599E74D4697E708300200F7
:103E4000DC300200AC1B0200F8300200F8B5B2F51D
:103E5000802F01D2042A2BD9B2F5802F38D3082322
:103E6000D21ACC1D24F007040A4422F00702121BC8
:103E7000D108172A2ED90460A1600023E360B2F5AF
:103E8000802F37D308200830A1EBD0030133B3FAD9
:103E900083F3C3F1200CC3F124039B0003F1070E4D
:103EA0004FEADE0606EBD000884225D8002338E032
:103EB000414C4FF4F97322464049414816F0A6FEA2
:103EC000404816F0A3FE4FF4F971204616F095FE17
:103ED0000423C5E7384C40F2FB1322463A493848E0
:103EE00016F094FE374816F091FE40F2FB11204682
:103EF00016F083FE0420C6E72F4C4FF403732246CE
:103F000032492F4816F082FE2E4816F07FFE4FF4FD
:103F10000371204616F071FE181D002544F820504C
:103F200001336345F8DB7300B2F5802F31D3636052
:103F3000B2F5802F2FD300232360B2F5802F2DD32D
:103F4000636843F001036360881B47002EF007039A
:103F5000E518B2F5802F26D36F60A568B5F5004F40
:103F600023D3E65022F007032244A568B5F5004F9D
:103F70001DD300255560A268B2F5004F1AD3E0505A
:103F80000122204616F080FB3146204616F0D7FC71
:103F9000F8BD6380CCE700232380CEE7638843F03D
:103FA00001036380D0E76F80D7E7E652DAE70025A8
:103FB0005580E0E7E052E3E70830020018310200E4
:103FC000AC1B02003C310200583102008431020077
:103FD0002DE9F04F91B005920393134602F00402CD
:103FE0000092C3F3C20310F00302019240F06A8210
:103FF00080468A460133041D00284FD0B8F1000FD7
:1040000005D0A4EB08020432524500F25E82039A06
:10401000551E019A04920692029200264FF0FF3B31
:104020000427B946B8F1000F01D0039A22605A1E46
:104030000792002B40F35C81059B13F0020229D00C
:104040000120A4EB08018B081AB1B1F5007F80F0C4
:104050006381029A0F2A00F26F81B8F1000F00F01D
:104060007F81DBB2029901F140026A4402F8103C00
:1040700002F820BC002800F06F8163F07F0301F19B
:1040800040026A4402F8103C049B01330493029BF3
:10409000013302930434002140463DE001F0070A59
:1040A0005444CAF1080AA9E7002634E0002632E0A9
:1040B000002630E00827B9462DE0252B2BD10BF147
:1040C000010B01260427B94625E0472BEED82A2B01
:1040D00014D32A3BDBB24FF0010C0CFA03F34FF67A
:1040E000DA7C13EA0C0F16D113F0625F40F0C08047
:1040F00013F0010F40F08C8000260CE0252B03D13B
:104100000BF1FF3B002606E001D9002603E0202B3F
:1041100001D0232BCCD115466A1C6B78002B00F004
:104120004981002EC9D07A2BBED84C2BCDD34C3B25
:104130002E2B61D80FF2040C5CF823F0174100001D
:10414000F9410000F9410000F9410000F941000087
:10415000F9410000F9410000F9410000F941000077
:10416000F9410000F9410000F94100000942000056
:10417000F9410000F9410000F9410000F941000057
:10418000F9410000F9410000F9410000F941000047
:1041900071420000F941000009420000094200009C
:1041A000714200007142000071420000174100009E
:1041B00009420000B5400000F9410000174100002D
:1041C000F9410000CD42000009420000CD4200004C
:1041D000F9410000F9410000D5420000034200000F
:1041E00009420000F9410000F941000009420000C5
:1041F000F9410000FD41000000268CE70427B94684
:1042000089E70427B94686E72B786C2B24D0002653
:104210003C44013CB4FBF7F407FB04F420B1231A3F
:104220004B44534500F25481002958D1B9F1040F91
:1042300000F0A780B9F1080F40F0AB801A9B07335C
:1042400023F0070303F108051A9593ED007B08B1ED
:1042500084ED007B08345EE712F8023C6C2B03D03F
:1042600000260427B946D3E700260827B946CFE73A
:104270002B784C2B1AD01A9B073323F0070303F13A
:1042800008061A96D3E90067073424F0070440B102
:10429000231A0833534513D82B784C2B13D0C4E979
:1042A0000067083400260827B94634E71A9B07330D
:1042B00023F0070303F108061A96D3E90067E3E742
:1042C0006FF01B00FBE0C4E90067EAE70026042763
:1042D000B9469DE7314600260427B94698E780464F
:1042E0001A9B191D1A911B680393079B154699E6A3
:1042F0007C4B039A9A4204D37B4B9A420AD3002305
:1043000000E00023002B7FF497AE059B03F0020230
:10431000002096E60123F5E7744C4FF41F73224604
:104320007349744816F072FC734816F06FFC4FF432
:104330001F71204616F061FC6C4C40F2812322462E
:104340006B496C4816F062FC6C4816F05FFC40F25A
:104350008121204616F051FC069B0133069396E618
:1043600010B10AF1010A92E6009B13B10AF1020AA8
:104370008DE60398FCF7D4F90AEB000303F1020A77
:1043800085E61A9B1D1D1A951B6800B12360043435
:10439000C1E6564C40F2C62322465549554816F010
:1043A00035FC4946564816F031FC40F2C6212046FD
:1043B00016F023FC8046231AB3F5806F13D210B396
:1043C000002202609B080370009B03B3069BC3702E
:1043D000049B88F802309BBB019DDDF80890DDF856
:1043E00010B0039F4DE0414C40F2D2232246404999
:1043F000404816F00BFC434816F008FC40F2D2216E
:10440000204616F0FAFB5344A3F1080057E0069B40
:104410004370DDE701339842DED903F140026A447C
:1044200012F8101C12F9102C002AF3DA01F07F01A7
:10443000A4EB0802013252454DD804F8011BE9E70C
:10444000019B0298E7E7009B43B305F140036B44EF
:1044500013F8203C04F8013B019EA4EB080333440D
:10446000013353453AD805F140036B4413F8103C2F
:1044700004F8013B3246394620461BF0A4FE344482
:104480000135A94519D9BBF1000FDCD005F1400376
:104490006B4413F9103C002BD5DAF1E705F140032A
:1044A0006B4413F8103C58F82370002248F823207E
:1044B0003846FCF735F9461CCFE7A4EB080011B0ED
:1044C000BDE8F08F6FF00D00F9E76FF01B00F6E725
:1044D0006FF01B00F3E76FF01B00F0E76FF01B00BD
:1044E000EDE700BFF009020024890200B0310200AC
:1044F000F01D0200AC1B0200F83102001C32020069
:104500003832020050320200014B1860704700BF81
:10451000C004002080B505460E461746984611F0A7
:104520001DFE03461CF05AFA0446DFF8189049F8BD
:104530000030424639463046A84754F8090005F095
:10454000F9F800BF0800000038B504460D462022E7
:1045500000211BF060FEEB68E361AB68A3612B6890
:1045600023626B6863620022A2622A6922612BB116
:10457000591E0B4202D142F00102226104F12C00CB
:10458000012200211BF081FB00B938BD054C2F230F
:1045900022460549054816F039FB2F21204616F022
:1045A0002CFB00BF7C320200A4320200AC1B0200D4
:1045B00010B504468C46838B002A12DB03F00703F8
:1045C0005A1F012A19D9042B50D1002116F02CFBB7
:1045D000204616F053FB78B1A38B43F02003A3834E
:1045E0000AE0D0E900018CE8030000232360636047
:1045F0000121204616F018FB10BDD0E900018CE81F
:104600000300002222606260062B0FD0052B20D110
:104610000021204616F008FB204616F02FFB00284C
:10462000EAD0A38B43F02003A383E5E7DCF8003056
:1046300053B1E28B0132E2831A461B68002BF7D09C
:10464000002AF5D11346F3E70221204616F0ECFAD2
:10465000E2E70D4C40F2091322460C490C4816F0D3
:10466000D5FA40F20911204616F0C7FA064C40F27E
:104670001B1322460749064816F0C8FA40F21B11E0
:10468000204616F0BAFA00BFB0320200D83202005B
:10469000AC1B0200F01D02002DE9F04782B0838BB5
:1046A000E1B10446154603F0070603F00802084688
:1046B00092B301291FD0022921D143F02003A38303
:1046C0001434204612F04EF8002800F09D8185F346
:1046D0001188BFF36F8F02B0BDE8F087B94C40F28C
:1046E00033132246B849B94816F090FA40F2331114
:1046F000204616F082FA43F01003A383E0E7B14CA2
:104700004FF49E732246B249B04816F07FFA4FF438
:104710009E71204616F071FA00230093019357E032
:10472000204616F0ABFA55E0D4F818904A46694690
:104730002046FFF73DFF0027A38B03F00708B04595
:1047400000F00781A268002A00F00381012643F0EF
:104750000803A38304F1140A504612F003F800285A
:1047600000F0008185F31188BFF36F8F002E40F0B9
:104770000A81009B2BB14B4642466946204616F003
:10478000BEFA17B193492046B847EFF311852023AD
:1047900083F31288BFF36F8F504611F0D3FF0028C8
:1047A00000F0F780504611F0F7FFA38B23F00803C9
:1047B000A383A38B13F0100F00F0FA8023F01003F3
:1047C000A3830120A68B06F0070600283FF478AFEC
:1047D0000228A5D000283FF473AF0138042800F266
:1047E000AB8001A353F820F02947000039490000AD
:1047F000FD47000065480000CF4800005EB923680F
:10480000B3B123691F6807B30621204616F00CFADE
:104810004FF0000990E76B4C4FF4AB7322466E49A2
:104820006A4816F0F3F94FF4AB71204616F0E5F93B
:10483000644C40F2571322466849644816F0E6F982
:1048400040F25711204616F0D8F95E4C4FF4AD7384
:10485000224663495D4816F0D9F94FF4AD71204600
:1048600016F0CBF9022E0BD1E38BB3B923695F6845
:1048700007B30421204616F0D7F94FF000095BE793
:10488000504C40F25D1322465649504816F0BEF98E
:1048900040F25D11204616F0B0F94A4C4FF4AF7368
:1048A00022465149494816F0B1F94FF4AF712046FC
:1048B00016F0A3F9434C40F261132246484943489D
:1048C00016F0A4F940F26111204616F096F9012E77
:1048D0000BD12368B3B123699F6807B30521204634
:1048E00016F0A2F94FF0000926E7364C4FF4B273E8
:1048F00022463E49354816F089F94FF4B2712046F8
:1049000016F07BF92F4C40F26513224633492F48AD
:1049100016F07CF940F26511204616F06EF9294C2C
:104920004FF4B47322462E49284816F06FF94FF41D
:10493000B471204616F061F9224C40F26B13224606
:104940002B49224816F062F940F26B11204616F00E
:1049500054F9009A0AB10026F9E6002F3FF429AF76
:104960000026F4E6234C40F2311322462249174830
:1049700016F04CF95146214816F048F940F2311131
:10498000204616F03AF94A464146204616F054F9B8
:10499000EFE6184C8823224619490C4816F036F9E0
:1049A0005146184816F032F98821204616F025F9AC
:1049B00013F0200F04D023F02003A383022001E78B
:1049C0000020FFE6B032020000330200AC1B020000
:1049D000103302003D4A000024330200303302004D
:1049E000543302006C33020084330200943302001B
:1049F000F01D0200AC330200DC330200F43302008D
:104A00000C34020024340200084D40F231132A46CF
:104A10000749084816F0FAF82146074816F0F6F854
:104A200040F23111284616F0E8F800BFAC3302001E
:104A3000DC330200AC1B0200F4330200F8B504467C
:104A40000D4600F11406EFF31187202383F312883B
:104A5000BFF36F8F304611F075FE48B1304611F04C
:104A60009BFEA5613A4601212046FFF715FEF8BDE1
:104A7000074C882322460749074816F0C7F83146F5
:104A8000064816F0C3F88821204616F0B6F800BF95
:104A9000AC3302000C340200AC1B020024340200D0
:104AA0002DE9F0470446884616F001F9061E46DB5C
:104AB00004F11407EFF3118A202383F31288BFF364
:104AC0006F8F384611F03EFE8146A8B1384611F08E
:104AD00063FEA58B05F00705E38B4FF6FF7293424B
:104AE0004BD02E46022D16D0062D39D8DFE805F022
:104AF000314C3838312A31003B4C882322463B491F
:104B00003B4816F083F839463A4816F07FF888217A
:104B1000204616F072F80133E38300231A4642B1AF
:104B20000022C8F800206268AAB3C2F80080C4F866
:104B30000480ABB3524602212046FFF7ADFD30465C
:104B4000BDE8F0876FF085064FF000094B464A46F6
:104B5000E5E7B5FA85F35B094A464FF00009DEE761
:104B6000254C4FF4E47322462449214816F04EF8B0
:104B70004FF4E471204616F040F86FF00A064FF04B
:104B800000094B464A46CAE76FF004064FF0000999
:104B90004B464A46C3E7C4F80480C4F80080C8E71F
:104BA000384611F0DFFD68B18AF31188BFF36F8FCB
:104BB000B9F1000FC3D000232A464146204616F023
:104BC0008BF8BCE7084C40F2311322460C490848E8
:104BD00016F01CF839460B4816F018F840F231115F
:104BE000204616F00AF800BFAC3302000C34020075
:104BF000AC1B020024340200B032020094330200E5
:104C0000DC330200F433020010B50346426802F0C0
:104C100003028160022A11D0032A0CD0012A10D08D
:104C20000C4C452322460C490C4815F0EFFF45215A
:104C3000204615F0E2FF0468002004E0006800242C
:104C400001E00024204600225A6008B112F016FF4D
:104C5000204610BD3C340200F01D0200AC1B0200D7
:104C60002DE9F04182B080460E46154600272A46BF
:104C700001A9404616F095F80446024631460198CF
:104C80001BF0A1FA274426442D1B01D0002CEED1A5
:104C90003946404616F0A5F818B9384602B0BDE8C6
:104CA000F081054C492322460449054815F0AEFF22
:104CB0004921204615F0A1FF64340200A43202000D
:104CC000AC1B02002DE9F04182B080460E4615462D
:104CD000002709E00246019930461BF074FA264489
:104CE00027442D1B09D044B12A4601A9404616F09D
:104CF00096F80446002EEDD1F2E73946404616F00C
:104D0000ABF818B9384602B0BDE8F081054C8E23E7
:104D100022460549054815F079FF8E21204615F0F9
:104D20006CFF00BF64340200A4320200AC1B02001E
:104D300010B143685879704710B5064C40F23313F0
:104D400022460549054815F061FF40F2331120461F
:104D500015F053FF98340200D0340200AC1B02005F
:104D600010B520B10268D26802B1904710BD054C61
:104D70008B2322460449054815F048FF8B21204625
:104D800015F03BFF98340200D0340200AC1B020047
:104D900010B520B10268126962B1904710BD064C8F
:104DA0009E2322460549064815F030FF9E212046E5
:104DB00015F023FF0020F1E798340200D034020000
:104DC000AC1B020010B518B102689268904710BD84
:104DD000054CD02322460549054815F017FFD02180
:104DE000204615F00AFF00BF98340200D0340200BC
:104DF000AC1B020010B520B171B102681268904777
:104E000010BD0B4CB22322460A490B4815F0FEFE9A
:104E1000B221204615F0F1FE054CB3232246074986
:104E2000054815F0F3FEB321204615F0E6FE00BF5D
:104E300098340200D0340200AC1B0200E8340200B7
:104E40002DE9F04107460546EDB195FAA5F6B6FA0B
:104E500086F60E4C04EB06140123B3406FEA0308F8
:104E600025EA0305237B002BEED02046FFF790FFB9
:104E70000028E9D107EA0807636804221968204678
:104E800000F0BCFAE0E73846BDE8F0813C0E0200D5
:104E90002DE9F041314B324A9B1A8F2B12D88046B4
:104EA0000F46304BBFF35B8F53E8006F721C43E833
:104EB00000210029F8D1BFF35B8F002E4AD1284C86
:104EC000002514E0284C40F2411322462749284887
:104ED00015F09CFE40F24111204615F08EFE6368ED
:104EE00004221968204600F089FA013510341B4B62
:104EF0009C4211D8194B9C421ED2237B002BF4D02C
:104F00002046FFF72DFF2046FFF742FF0028E6D09E
:104F10000123AB401E43E8E7134C4FF4A77322462E
:104F20001449134815F072FE134815F06FFE4FF444
:104F3000A771204615F061FEB8F1000F0BD056B1F5
:104F40003046FFF77DFF0646002FF8D00A2015F007
:104F5000A8FFF4E700263046BDE8F0815C0E0200B1
:104F60003C0E0200701B0020FC3402002C350200B5
:104F7000AC1B02005C3502008035020038B50546E6
:104F8000144C00E01034144B9C4212D8124B9C423B
:104F90001FD22046FFF7CCFE0028F3D0294620463A
:104FA00015F09CFF0028EDD029462046FFF722FF90
:104FB000E8E70A4C40F2F51322460949094815F082
:104FC00025FE094815F022FE40F2F511204615F0A5
:104FD00014FE38BD3C0E02005C0E0200FC340200E0
:104FE0005C350200AC1B020080350200014B53F817
:104FF00020007047A035020048B108B5054A10608E
:10500000054B1960084600F071FC002008BD6FF0E8
:1050100015007047C4040020641B002008B500235D
:10502000064A1370064A1360064A13604FF40041A3
:105030000548FFF7E1FF00F057F908BDB12800204F
:10504000681B00206C1B00209BAE0100174B1B78D7
:1050500003B1704710B500210120FFF719FF144C70
:1050600000E01034134B9C420BD8124B9C4218D2D8
:105070002046FFF75DFE0028F3D02046FFF7A2FE92
:10508000EFE70D4C4FF4DD7322460C490C4815F048
:10509000BDFD0C4815F0BAFD4FF4DD71204615F04A
:1050A000ACFD024B01221A7010BD00BFB1280020D8
:1050B0003C0E02005C0E0200FC3402005C35020073
:1050C000AC1B020080350200014B01221A707047B0
:1050D000B02800200D4BBFF35B8F53E8001F013158
:1050E00043E80012002AF8D1BFF35B8F00B9704784
:1050F000074BBFF35B8F53E8001F013943E80012F1
:10510000002AF8D1BFF35B8FF1E700BF681B0020D6
:105110006C1B002010B50446044B1B689847A06028
:105120002146034815F0FCFE10BD00BFC40400205A
:1051300018080020014800EB81007047600800203B
:1051400010B143681879704710B5054CED2322461D
:105150000449054815F05AFDED21204615F04DFD96
:1051600098340200D0340200AC1B020010B1436836
:105170001971704710B5054CDF23224604490548D4
:1051800015F044FDDF21204615F037FD983402006C
:10519000D0340200AC1B020028B1426811604368A1
:1051A00001225A71704710B5064C4FF48C73224699
:1051B0000549064815F02AFD4FF48C71204615F07C
:1051C0001CFD00BF98340200D0340200AC1B02006A
:1051D00010B143685879704710B5064C40F233134C
:1051E00022460549054815F011FD40F233112046CD
:1051F00015F003FD98340200D0340200AC1B02000D
:1052000018B1436800225A71704710B5064C40F23D
:10521000251322460549064815F0F8FC40F22511F1
:10522000204615F0EAFC00BF98340200D03402009A
:10523000AC1B02000248034BC01AC008704700BFF5
:105240003C0E0200740D020010B50C46FFF7F2FF91
:10525000A04203D9024B53F8340010BD0020FCE7F4
:10526000740D020010B50C46FFF7E4FFA04204D90C
:10527000034B03EBC403187910BD0020FCE700BF0B
:10528000740D0200F8B506460D4614461F46084642
:10529000FFF7D0FF84420DD2CFB1002C1CDB21469A
:1052A000E8B2FFF747FF006806EB4606F04000F063
:1052B000070010E0094C4FF4D4732246084909480E
:1052C00015F0A4FC4FF4D471204615F096FC21464D
:1052D000E8B2FFF7C7FFF8BD0420FCE7B4350200D1
:1052E00000360200AC1B020010B5002410E021467D
:1052F0000020FFF7B7FF0A4A52F8243023F00703D3
:1053000042F8243000F00700034342F8243001340F
:10531000044B054A9B1AB4EBD30FE8D310BD00BF72
:10532000600800203C0E0200740D02002DE9F843D5
:1053300004460D46164698460846FFF77BFF864210
:1053400022D2002C2DDBE4B200233246294620462F
:10535000FFF798FF38B10023324629462046FFF771
:1053600091FF40453ED80023324629462046FFF7AC
:1053700089FF074670BB3B463246E9B2204615F02E
:10538000F7FD3846BDE8F883174C4FF4DE7322462C
:105390001649174815F03AFC4FF4DE71204615F017
:1053A0002CFC144B144AA3EB02094FEA19190024F0
:1053B00027464C45E5D2104800EB0410FFF7C0FE2D
:1053C000434632462946FFF7B1FF874238BF0746BA
:1053D0000134EEE70023324629462046FFF752FF0C
:1053E0000746C8E74746C6E7B43502000036020064
:1053F000AC1B02005C0E02003C0E020070B50446BD
:105400000E461546094BC31A1B110133D9B2FFF7DB
:10541000ADFE63689D712946204615F0F3FD3146C7
:105420002046FFF7B9FEFFF74FFE70BD3C0E0200AD
:105430002DE9F04F87B004AF0646884615469946D9
:10544000D7F830B0D7F838A0BAF1000F2DD0FB6BE9
:105450007B60009353467A6B10210020FEF7B8FD65
:10546000002815DBB0F5006F20D32F4B1B6813F01D
:10547000060F48D040F2FF7303932C4B0293002099
:105480000190009003460222274915F004FE3AE0FD
:10549000274C40F2651322462649274815F0B6FBF3
:1054A00040F26511204615F0A8FB0020014600EBF4
:1054B0000B03173300246FF300046FF341046FF301
:1054C000820466F3C50465F3881460F353246BF318
:1054D0001F5423F00703ADEB030D04AD6B4613F12E
:1054E00020000AD0BAF1000F07D0FB6B009353469F
:1054F0007A6BFEF76DFD002809DB4B4622464146DC
:10550000284615F0B1FD0C37BD46BDE8F08F084CBC
:1055100040F2851322460749074815F077FB40F211
:105520008511204615F069FB9C0800206C360200AE
:105530003436020060360200AC1B0200406820B125
:10554000034BC01A40F38F0070474FF0FF30704795
:10555000600800200EB400B582B0014603AB53F8DA
:10556000042B0193034804F0BDFD02B05DF804EB89
:1055700003B07047E3B0010010B584B011F0440FE0
:1055800005D01A4B1B6833B9002004B010BD184970
:10559000FFF7E0FFF9E717490968B2FBF1F2B2FB48
:1055A000F3FC03FB1C224FF47A7E0EFB02F2B2FBEB
:1055B000F3F403FB14210EFB01F1B1FBF3F10E4AEE
:1055C000A2FB0C32D20A4FF4616303FB12CC0B4BEB
:1055D000A3FB0CE35B0902910194C3EB0311ACEB59
:1055E000810100910649FFF7B5FFCEE7781B002047
:1055F000A4360200741B0020C5B3A2918988888854
:10560000B036020061B108B52AB1064A52F823202B
:1056100012B9054A00E0044A0449FFF79BFF08BDA0
:10562000704700BF68370200CC360200B428020081
:105630002DE9F04105461746069EDDF81C8081B92C
:1056400000242EB1324611492846FFF783FF044457
:10565000B8F1000F14D06FB1099B042B13D00C4983
:1056600009E00C4B099A53F822200B49FFF772FF0F
:105670000446E6E7064942462846FFF76BFF044426
:105680002046BDE8F0810549F5E700BFE836020095
:10569000D83602007C370200E0360200D436020021
:1056A0002DE9F04F87B0049205939DF84C60042ECD
:1056B00030D805460C4601F0020B01F0010AC1F397
:1056C000C00801F4807915F03FFC024678B31C490C
:1056D0002846FFF73FFF0746BBF1000F29D13246AE
:1056E0005146284615F01BFDB9F1000F01D00023EB
:1056F00011930396129B0293119B0193109B0093AD
:105700000023049A41462846FFF792FF384407B029
:10571000BDE8F08F0B4C40F2462322460A490B4865
:1057200015F074FA40F24621204615F066FA00277B
:10573000D2E7059A21462846FFF71EFF0744CEE729
:1057400028370200EC3602001C370200AC1B0200B6
:1057500011F0100F0BD108B511F0200F03D0044940
:10576000FFF7F8FE08BD0349FFF7F4FEFAE77047BC
:10577000B4580200288702002DE9F04105460F4683
:10578000164698460699FFF7E3FF0024444505DADC
:1057900024492846FFF7DEFE0134F7E7002409E03C
:1057A00020492846FFF7D6FE0BE01F492846FFF7A1
:1057B000D1FE01340F2C0CDC002C02DD14F0070F9D
:1057C000EED0B442F1D23A5D18492846FFF7C2FE46
:1057D000EFE717492846FFF7BDFE002409E011490D
:1057E0002846FFF7B7FE0BE012492846FFF7B2FE46
:1057F00001340F2C13DC002C02DD14F0070FEED067
:10580000B44207D23A5D0C4B9B5C13F0970FEBD17F
:105810002E22E9E703492846FFF79CFEE8E7BDE8AA
:10582000F08100BFE4360200343702002C3702005A
:1058300038370200BC450200F58702002DE9F0412F
:1058400084B004469DF82C500C9F0E9EA5B9012BE8
:1058500020D020484FF0000837B13B4622461E4971
:1058600015F087F9002819DB2EBB6DBB204615F01B
:1058700021FC04B0BDE8F08103950A9802900193E1
:1058800000920B4600220F992046FFF709FF804641
:105890001248E1E711484FF00008DDE7104C4FF4E3
:1058A000287322460F49104815F0B0F94FF42871BB
:1058B000204615F0A2F90F9B0093434632460D99FE
:1058C000204615F044FCD0E72A460F99204615F0F3
:1058D00032FCCBE701B10100E5A00000E3B001001C
:1058E000EC3602003C370200AC1B0200074B0122E1
:1058F0001A6004E04008054A13685B001360044B1B
:105900009842F7D8034B1860704700BF741B002003
:1059100040420F00781B0020034B01221A70034BFA
:10592000034A1A60704700BFB2280020981B00206D
:105930009C1B002008B5034B01221A70024815F089
:1059400054FC08BDB3280020BC370200014B19608D
:1059500000207047901B002008B518B9044B0022A6
:105960001A7008BD41F288301AF0D1F8F9E700BF8B
:10597000B228002038B504460A4B01221A700A4B9F
:105980001B782BB938BD651E2046FFF7E5FF2C4676
:1059900000200EF097F80028F4D0024B1B78002B63
:1059A000F1D1EFE7B2280020B3280020F8B5064671
:1059B0000D46042706E03846FFF7DCFF9CB90D4B87
:1059C0001B7883B12A46314600200EF013F80446B6
:1059D0000028F0D1074B1B78002BEFD0013F384651
:1059E000FFF7BAFFEAE714B9024B1B7803B92C465C
:1059F0002046F8BDB228002010B50C46044B1868AC
:105A0000FFF7F4FA03460F2221460248984710BDDB
:105A1000901B0020BC370200014B03600020704740
:105A2000CC3702008446002300E00133074A1268A5
:105A30009A4208DD1A010649096801EB03108A5CE5
:105A40006245F2D100E00020704700BF0C50020018
:105A50000805002038B50C4B1B685BB10C46FFF7FE
:105A6000E1FF054648B1C0681AF057F840B125601B
:105A7000002038BD6FF00C00FBE76FF00100F8E785
:105A80006FF01200F5E700BF0805002010B50446CE
:105A900018F01BFA02460349204615F0CBFF002000
:105AA00010BD00BFF837020030B583B0054613467D
:105AB0000022019201AA0A21586802F0EFF8019C25
:105AC00024B915F0F9FB204603B030BD2246034946
:105AD000284615F0CDFF019CF5E700BF28380200ED
